:100000000C94E0010C948F240C9464240C943924F7
:100010000C940E240C94E3230C94B8230C948D239D
:100020000C9462230C9411020C9411020C94110292
:100030000C9411020C9411020C9411020C941102F4
:100040000C9411020C9411020C9411020C941102E4
:100050000C9411020C9411020C9411020C941823AC
:100060000C9411020C94E2220C94B8220C9411020C
:100070000C9411020C9411020C9411020C941102B4
:100080000C9411020C9411020C9411020C941102A4
:100090000C9411020C9411020C9411020C94BA24C9
:1000A0000C9411020C9411020C9411020C94110284
:1000B0000C9411020C9411020C9411020C94110274
:1000C0000C9411020C9411020C9411020C948222D3
:1000D0000C9458220C9411020C9411020C941102ED
:1000E0000C9411020C94930A0C948F0A0C948C04B7
:1000F0000C94610A0C949E040C943B020C94B60A76
:100100000C9482040C94B0040C94BE210C943C0218
:100110000C94B42A0C94821E0C94B20A0C94B50967
:100120000C949B0A0C94FC090C94BA040C94D4090A
:100130000C94EA180C94C1180C94DE090C94040A6F
:100140000C9478020C94BD2A0C9426070C94F203AC
:100150000C94C9030C94C5030C94AA1F0C94550766
:100160000C9469020C946A0A0C946B040C94780445
:100170000C94E7040C94D9090C94D2030C94C90A8A
:100180000C94DF060C94FB040C94EE030C94200AF0
:100190000C94AE0A0C94DD040C94B12A0C940C0A55
:1001A0000C946F210C94B4090C94CE0A0C948E2DEF
:1001B0000C94AC1F0C94EA030C94F2090C940922E1
:1001C0000C94C02A0C94570A0C94160A0C94DC0266
:1001D0000C94C4040C9429030C94BC0A0C94E00302
:1001E0000C94AE1F0C94EF280C943D1F0C949604B5
:1001F0000C94E8090C94A6040C94F8030C940505DF
:100200000C94F9060C94DC030C94CA0A0C94BD03FC
:100210000C94F2060C94F1040C9478050C94970A53
:100220000C94390A0C94D3040C9413190C94D6032F
:100230000C949A020C94890A0C94C00A0C94AB0397
:100240000C94A80A0C94C71E0C943A020C94CC038C
:100250000C9473040C94B72A0C949E0A0C94A40A70
:100260000C942A0A0C94E4030C94A81F0C94FC032D
:100270000C944D0A0C94CF060C94430A0C94C103C1
:100280000C94C40A0C94DE250C94D0060C948C02B9
:100290000C94BA2A0C943C190C94A603000021007B
:1002A000240027002A002D00300033000101000047
:1002B000040107010A010000200023002600290094
:1002C0002C002F003200000100000301060109018B
:1002D00000000A0B02090C0D0E08070304010000C0
:1002E000000000000000000000000000000000000E
:1002F00000000000000000000000000012111000CB
:1003000000000000000000000000000000000000ED
:10031000000000000000010210202008081020400A
:1003200010204080020102010804020101020408B9
:100330001020408080402010080402018004020147
:100340008040201008040201080402010102040890
:10035000102040800102040810204080000022008C
:10036000250028002B002E0031003400020100007F
:10037000050108010B010505050507050808080822
:10038000020202020A0A080804040404010101012D
:100390000101010103030303030303030407070728
:1003A0000C0C0C0C0C0C0C0C0202020206060606CD
:1003B000060606060B0B0B0B0B0B0B0BDE258E2D0F
:1003C00011241FBECFEFD1E2DEBFCDBF00E00CBFD6
:1003D00026E0A2E9B3E001C01D92A139B207E1F71E
:1003E00013E0A0E0B2E0E2E4F3E600E00BBF02C0FD
:1003F00007900D92A239B107D9F711E0CFEDD1E006
:1004000000E006C021970109802FFE010E945330B1
:10041000CE3DD10780E00807A9F70E94F0270C9491
:100420008F310C940000FC01A089B18982E08C938B
:10043000A485B5851C92A685B78580E18C93108E26
:10044000A489B58986E08C93A289B3898C91806157
:100450008C93A289B3898C9188608C93A289B3898B
:100460008C9180688C930288F389E02D80818F7D48
:100470008083089508950895AF92BF92CF92DF923E
:10048000EF92FF920F931F93CF93DF936C017B0149
:100490008B01040F151FEB015E01AE18BF08C017DA
:1004A000D10759F06991D601ED91FC910190F0814D
:1004B000E02DC6011995892B79F7C501DF91CF9100
:1004C0001F910F91FF90EF90DF90CF90BF90AF9072
:1004D0000895FC01538D448D252F30E0842F90E04A
:1004E000821B930B541710F0CF960895019708952F
:1004F000FC01918D828D981761F0A28DAE0FBF2FF8
:10050000B11D5D968C91928D9F5F9F73928F90E04D
:1005100008958FEF9FEF0895FC01918D828D9817BC
:1005200031F0828DE80FF11D858D90E008958FEFF9
:100530009FEF0895FC01918D228D892F90E0805CC2
:100540009F4F821B91098F73992708958BE994E03F
:100550000E949A0221E0892B09F420E0822F08955D
:1005600088E395E00E949A0221E0892B09F420E0BB
:10057000822F0895FC01A48DA80FB92FB11DA35A95
:10058000BF4F2C91848D90E001968F739927848FB3
:10059000A689B7892C93A089B1898C9183708064D6
:1005A0008C93938D848D981306C00288F389E02D77
:1005B00080818F7D80830895EF92FF920F931F9328
:1005C000CF93DF93EC0181E0888F9B8D8C8D981306
:1005D0001AC0E889F989808185FF15C09FB7F89412
:1005E000EE89FF896083E889F9898081837080645E
:1005F00080839FBF81E090E0DF91CF911F910F91A9
:10060000FF90EF900895F62E0B8D10E00F5F1F4FB7
:100610000F731127E02E8C8D8E110CC00FB607FCC6
:10062000FACFE889F989808185FFF5CFCE010E9454
:10063000BA02F1CFEB8DEC0FFD2FF11DE35AFF4F06
:10064000F0829FB7F8940B8FEA89FB8980818062E2
:10065000CFCFCF93DF93EC01888D8823B9F0AA899F
:10066000BB89E889F9898C9185FD03C0808186FD6D
:100670000DC00FB607FCF7CF8C9185FFF2CF8081BC
:1006800085FFEDCFCE010E94BA02E9CFDF91CF9175
:10069000089580E090E0892B29F00E94B00281113A
:1006A0000E94000080E090E0892B49F080E090E01B
:1006B000892B29F00E94000081110E94000080E037
:1006C00090E0892B29F00E94A60281110E9400006F
:1006D00080E090E0892B49F080E090E0892B29F0C0
:1006E0000E94000081110C9400000895282F30E032
:1006F000F901E053FD4F9491F901EA5EFC4F4491FA
:100700002A583C4FF9012491222309F435C099233A
:1007100011F191509231F8F4E92FF0E08827EC566E
:10072000FC4F8F4F0C945330C503C903A603BD0380
:10073000C103AB03CC03D203D603DC03E003E40321
:10074000EA03EE03AB03F203F803FC03809180009D
:100750008F7780938000E22FF0E0EE0FFF1FE45AC6
:10076000FC4FA591B4918FB7F894EC91611148C0FA
:1007700040954E234C938FBF0895809180008F7DCC
:10078000E8CF80918000877FE4CF84B58F7784BDE8
:10079000E2CF84B58F7DFBCF8091B0008F778093BF
:1007A000B000D9CF8091B0008F7DF9CF80919000BB
:1007B0008F7780939000CFCF809190008F7DF9CF7D
:1007C00080919000877FF5CF8091A0008F778093F4
:1007D000A000C1CF8091A0008F7DF9CF8091A000B3
:1007E000877FF5CF809120018F7780932001B3CF51
:1007F000809120018F7DF9CF80912001877FF5CFF7
:100800004E2BB8CFCF93DF9390E0FC01EA5EFC4F14
:1008100024918A589C4FFC0184918823D1F090E068
:10082000880F991FFC01E456FD4FA591B491FC017E
:10083000E45AFC4FC591D49161110EC09FB7F89452
:100840008C91E22FE0958E238C932881E223E8831C
:100850009FBFDF91CF9108958FB7F894EC91E22B71
:10086000EC938FBFF6CF1F93CF93DF93182FEB013D
:1008700061E00E940204209739F460E0812FDF914B
:10088000CF911F910C947603CF3FD10511F461E015
:10089000F5CFE12FF0E0E053FD4FE491E150E2317C
:1008A00008F0B3C0F0E08827E75AFB4F8F4F0C9455
:1008B00053306B047304780482048C040505960499
:1008C0009E04A604B004BA04C404D304DD040505E0
:1008D000E704F104FB0484B5806884BDC7BDDF91E3
:1008E000CF911F91089584B5806284BDC8BDF7CFB4
:1008F00080918000806880938000D0938900C093AD
:100900008800EDCF80918000806280938000D0933A
:100910008B00C0938A00E3CF809180008860809331
:100920008000D0938D00C0938C00D9CF8091B0000F
:1009300080688093B000C093B300D1CF8091B000A5
:1009400080628093B000C093B400C9CF80919000C2
:10095000806880939000D0939900C0939800BFCF97
:1009600080919000806280939000D0939B00C09310
:100970009A00B5CF80919000886080939000D093CA
:100980009D00C0939C00ABCF8091A00080688093B5
:10099000A0008091A0008F7B8093A000D093A9003D
:1009A000C093A8009CCF8091A00080628093A0009B
:1009B000D093AB00C093AA0092CF8091A000886032
:1009C0008093A000D093AD00C093AC0088CF8091FD
:1009D0002001806880932001D0932901C0932801D1
:1009E0007ECF80912001806280932001D0932B01E3
:1009F000C0932A0174CF80912001886080932001E8
:100A0000D0932D01C0932C016ACFC038D1050CF0D2
:100A10003ECF33CF8230910538F0880F991F880F71
:100A2000991F05970197F1F708953FB7F8948091C2
:100A3000FB039091FC03A091FD03B091FE0326B54A
:100A4000A89B05C02F3F19F00196A11DB11D3FBF06
:100A5000BA2FA92F982F8827BC01CD01620F711DD5
:100A6000811D911D42E0660F771F881F991F4A95CF
:100A7000D1F708958F929F92AF92BF92CF92DF925B
:100A8000EF92FF924B015C010E9415056B017C0106
:100A90000E9415056C197D098E099F09683E7340F7
:100AA00081059105A8F321E0821A9108A108B108F7
:100AB00088EEC80E83E0D81EE11CF11C811491045D
:100AC000A104B10429F7FF90EF90DF90CF90BF9081
:100AD000AF909F908F9008952FB7F8946091F7038F
:100AE0007091F8038091F9039091FA032FBF089554
:100AF00008952091D303260F3327331F2132310568
:100B0000ECF420917104FC0190E080E0243069F065
:100B100082E00895A091D3032191AC014D545C4F24
:100B2000A40FB52FB11D2C930196861798F38091D1
:100B3000D303680F6093D30380E0089581E00895A4
:100B40001092710481E08093700410924B0461E074
:100B500084E10E94760361E085E10E947603E9EB7F
:100B6000F0E080818E7F808380818D7F808388E428
:100B70008093B80085E48093BC000895CF93DF9301
:100B800091E09093B2038823B9F0C091B800D0915E
:100B9000BA008091BC008A7B8093BC0060E084E155
:100BA0000E94760360E085E10E9476030E94A00522
:100BB000D093BA00C093B800DF91CF9108958F927F
:100BC0009F92AF92BF92CF92DF92EF92FF920F93DC
:100BD0001F93CF93DF93D0919A04D13208F0D7C0FE
:100BE000182FC09199040E9415056B017C0180911A
:100BF000710481116BC082E08093710410937004C2
:100C00008FEF80936F0410926E04D0936D04A9E768
:100C1000B4E0EDE4F4E080E0D81391C010924C040D
:100C200080914C04CC0FC82BC0934C0480914B0492
:100C3000813009F088C010924B040E9415056B01A9
:100C40007C0180914C048093BB008091730490914F
:100C50007404A0917504B0917604892B8A2B8B2B98
:100C6000A1F00E9415050091730410917404209165
:100C70007504309176046C197D098E099F09061759
:100C800017072807390708F442C08091BC0083FD8C
:100C9000D8CF85EC8093BC000E9415056B017C01C8
:100CA00080917104823009F450C080916F048F3FAD
:100CB00009F46FC080916F04803209F46CC0809198
:100CC0006F04803309F469C084E026C08091730406
:100CD00090917404A0917504B0917604892B8A2BAD
:100CE0008B2B09F484CF0E9415058090730490909B
:100CF0007404A0907504B09076046C197D098E0977
:100D00009F0986169706A806B90608F070CF80914D
:100D100072040E94BE0585E01092780410929A0435
:100D200010927704DF91CF911F910F91FF90EF9078
:100D3000DF90CF90BF90AF909F908F9008959D913E
:100D400091938F5F69CF85EEA5CF809173049091C9
:100D50007404A0917504B0917604892B8A2B8B2B97
:100D600009F49ECF0E94150500917304109174043C
:100D700020917504309176046C197D098E099F09C4
:100D8000061717072807390708F08ACFC0CF81E078
:100D9000C3CF80E0C1CF82E0BFCF83E0BDCF089555
:100DA000E091040480910304E81730F4F0E0EE567B
:100DB000FC4F808190E008958FEF9FEF0895909110
:100DC0000404809103042FEF3FEF981748F4E92FB4
:100DD000F0E0EE56FC4F208130E09F5F90930404DA
:100DE000C90108958091030490910404891B990B13
:100DF0000895CF92DF92EF92FF920F931F93CF93BC
:100E0000DF937C01CB018A0120917704222389F0B2
:100E1000EB016B01C40ED51ECC15DD0569F069919F
:100E2000D701ED91FC910190F081E02DC70119955A
:100E3000F3CF642F0E947905C801DF91CF911F91F4
:100E40000F91FF90EF90DF90CF900895CF93DF93B5
:100E50001F92CDB7DEB76983209177042223F9F082
:100E600020919A04203258F021E030E0FC013383D5
:100E7000228390E080E00F90DF91CF9108958091E0
:100E80007804E82FF0E0E758FB4F998190838F5F5B
:100E90008093780480939A0481E090E0ECCF61E045
:100EA000CE0101960E947905F7CF90E080E0089589
:100EB000FC0183858F3F19F061E00C94760308955F
:100EC000FC0180819181892B39F0A281B3819C91B1
:100ED00011968C919CBD8DBD83858F3F19F060E08C
:100EE0000C9476030895AF92BF92CF92DF92EF9267
:100EF000FF920F931F93CF93DF93EC018881998129
:100F0000892B89F06EBD0DB407FEFDCFBEB48B2DCD
:100F1000DF91CF911F910F91FF90EF90DF90CF90D5
:100F2000BF90AF9008958885998511E0892B09F0CD
:100F300010E8AA24A394862F812309F0A12C062F60
:100F40002C813D814E815F8160E271EA87E090E013
:100F50000E943130F22EB02EE12CC22ED12CFF2077
:100F600019F0C6010E940A058A85877F09F042C0F0
:100F70008D858F3F89F0902F912381E009F480E0E7
:100F80008A1551F0EF85F8898F89992369F190814D
:100F9000892B8083AA24A394E989FA898081998D79
:100FA000892B8083FF2019F0C6010E940A058E85D7
:100FB0008F3F39F0EB89FC898081988D892309F076
:100FC000E12AE989FA899081898D80958923808336
:100FD0008E858F3F09F0BE2C88859985892BB9F5C0
:100FE000110F1111BCCF93CF9081809589238083FD
:100FF000A12CD2CFE989FA898081998D892B8083B0
:10100000FF2019F0C6010E940A058D858F3F49F027
:10101000EF85F8898F89902F9123A9F09081892BF2
:101020008083E989FA899081898D809589238083DD
:101030008E858F3F69F2EB89FC898081988D8923A9
:1010400039F2E12AC5CF908180958923E9CF1695A1
:10105000C8CF8F929F92AF92BF92CF92DF92EF92C2
:10106000FF920F931F93CF93DF937C014B016A0193
:10107000B22EA32E0E946007E401C80CD91CCC1527
:10108000DD0569F4CB2DDA2D0C0F1D1FC017D1071C
:1010900059F06FEFC7010E9473078993F7CF6991E9
:1010A000C7010E947307EBCFC7010E94580781E078
:1010B000DF91CF911F910F91FF90EF90DF90CF9034
:1010C000BF90AF909F908F9008958F929F92AF9214
:1010D000BF92CF92DF92EF92FF920F931F93CF9325
:1010E000DF937C01B62EA72E6A0149010E9460079A
:1010F000E401080D191DC017D10761F4CB2DDA2DBD
:10110000CC0EDD1ECC15DD0551F06991C7010E94A2
:101110007307F8CF6991C7010E947307ECCFC7012D
:101120000E94580781E0DF91CF911F910F91FF90AE
:10113000EF90DF90CF90BF90AF909F908F900895E9
:101140001F93CF93DF93EA01122FDC0111968D914B
:101150009C91DC01ED91FC910280F381E02D1995C9
:10116000C817D90729F4812F0E94DF0591E081116A
:1011700090E0892FDF91CF911F910895CF93DF9356
:10118000EC018B818823A1F0888191E09093770412
:10119000809399041092780410929A0481E00E943E
:1011A000DF0591E0811190E0892FDF91CF910895C3
:1011B00010920404109203041092780410929A047E
:1011C0000E94A0058AE392E0909300048093FF03BD
:1011D0008BE392E0909302048093010481E08B837F
:1011E000CE010E94BE08982F8111CECFDDCFAF92E5
:1011F000BF92CF92DF92EF92FF920F931F93CF9304
:10120000DF931F921F92CDB7DEB7DC01211103C01F
:1012100018962C911897253008F043C01F964D93CF
:101220005D936D937C93529790E080E0E22EF12CD9
:101230008E159F05B4F41A962C911A9721110AC0A5
:10124000FD01E80FF91F4387452F562F672F77279A
:101250000196EECFF701E81BF90BEA0FFB1F42875F
:10126000F3CF6D018BE0C80ED11C16969C9116979A
:1012700017968C91179799838A83AD90BC9011979C
:10128000A114B10409F441C019960C9110E0980121
:101290002E0D3F1DD50114968D919C9182179307B9
:1012A00010F480E016C0F50181819281208131E047
:1012B00030937704209399041092780410929A0442
:1012C0000115110599F421E0A701B601C5010E949D
:1012D000A0080F900F90DF91CF911F910F91FF9079
:1012E000EF90DF90CF90BF90AF900895DC01ED912B
:1012F000FC910280F381E02DA801BE016F5F7F4F5A
:1013000019950817190769F6DECF1296ED91FC9131
:101310001397309731F214962D913C9115971996A9
:101320000C9110E02330310571F48E7F89839A830C
:101330000F5F1F4F9E012F5F3F4FA701B601CF01E7
:101340000E946508C6CF2115310519F49F7799834E
:10135000F1CF2230310511F49068F9CF21303105F9
:1013600049F79F779064F3CF0895089581508231B3
:1013700008F0B0C0E82FF0E08827EE53F64F8F4F0B
:101380000C945330D409D909DE09E809F2096A0A34
:10139000FC09040A0C0A160A200A2A0A390A430A16
:1013A0006A0A4D0A570A610A84B5806884BD67BD20
:1013B000089584B5806284BD68BD089580918000E1
:1013C00080688093800070938900609388000895FE
:1013D0008091800080628093800070938B00609386
:1013E0008A000895809180008860809380007093C7
:1013F0008D0060938C0008958091B0008068809388
:10140000B0006093B30008958091B0008062809333
:10141000B0006093B400089580919000806880933C
:1014200090007093990060939800089580919000C7
:1014300080628093900070939B0060939A0008955F
:101440008091900088608093900070939D006093DD
:101450009C0008958091A00080688093A0008091F6
:10146000A0008F7B8093A0007093A9006093A800D8
:1014700008958091A00080628093A0007093AB00DB
:101480006093AA0008958091A00088608093A000D6
:101490007093AD006093AC00089580912001806846
:1014A0008093200170932901609328010895809111
:1014B000200180628093200170932B0160932A01A8
:1014C00008958091200188608093200170932D0100
:1014D00060932C0108958150823108F05AC0E82FA2
:1014E000F0E08827E958F54F8F4F0C945330970A56
:1014F0009B0A890A8F0A930AC90A9E0AA40AA80AA3
:10150000AE0AB20AB60ABC0AC00AC90AC40ACA0AA2
:10151000CE0A809180008F7780938000089580911B
:1015200080008F7DF9CF80918000877FF5CF84B5D3
:101530008F7784BD089584B58F7DFBCF8091B000F7
:101540008F778093B00008958091B0008F7DF9CFA0
:10155000809190008F778093900008958091900003
:101560008F7DF9CF80919000877FF5CF8091A0008B
:101570008F778093A00008958091A0008F7DF9CF90
:101580008091A000877FF5CF809120018F77809395
:1015900020010895809120018F7DF9CF8091200155
:1015A000877FF5CF4F925F926F927F928F929F923B
:1015B000AF92BF92CF92DF92EF92FF920F931F9361
:1015C000CF93DF93CDB7DEB76A970FB6F894DEBF3F
:1015D0000FBECDBF7A83698380902706909028063E
:1015E000A0902906B0902A06BC01990F880B990B90
:1015F0000E94CB2D20E030E04FE753E40E942A2EDA
:10160000A50194010E946F2F6B017C0129813A8111
:10161000B901330F880B990B0E94CB2D20E030E0ED
:101620004FE753E40E942A2EA50194010E946F2FD8
:101630002B013C0120E030E04FE753ECC701B6013D
:101640000E94C42D87FDDFC520E030E04FE753E462
:10165000C701B6010E941730181634F4C12CD12CE2
:101660003FE7E32E33E4F32EC0927906D0927A0658
:10167000E0927B06F0927C0620E030E04FE753ECEE
:10168000C301B2010E94C42D87FDC4C520E030E033
:101690004FE753E4C301B2010E941730181634F427
:1016A000412C512C9FE7692E93E4792E40927D06C0
:1016B00050927E0660927F0670928006609181064D
:1016C0007091820680918306909184060E94E12F9A
:1016D0007A836983C701B6010E94E12F49815A814B
:1016E00046175707B1F46091850670918606809180
:1016F0008706909188060E94E12F7A836983C3014F
:10170000B2010E94E12FA981BA81A617B70709F497
:1017100048C080913B0490913C04A0913D04B0915D
:101720003E0480932B0490932C04A0932D04B0933B
:101730002E0480913F0490914004A0914104B09107
:10174000420480932F0490933004A0933104B0930B
:1017500032048091430490914404A0914504B091D7
:1017600046048093330490933404A0933504B093DB
:1017700036048091470490914804A0914904B091A7
:101780004A048093370490933804A0933904B093AB
:101790003A041092890610928A0610928B061092D3
:1017A0008C0620E030E0A901C701B6010E94C42DDB
:1017B00020E030E0A901882311F40C944014C30107
:1017C000B2010E94C42D80902B0690902C06A09010
:1017D0002D06B0902E06882309F4BEC560913B0407
:1017E00070913C0480913D0490913E0400912B0443
:1017F00010912C0420912D0430912E04601B710B4C
:10180000820B930B0E94CB2D20E030E04FE753E496
:101810000E942A2EA70196010E946F2F20E030E03F
:10182000A9010E94173018160CF0FBC460913B040C
:1018300070913C0480913D0490913E0400912B04F2
:1018400010912C0420912D0430912E04601B710BFB
:10185000820B930B0E94CB2D20E030E04FE753E446
:101860000E942A2EA70196010E946F2F0E94E12F4D
:101870006D837E838F8398872D813E814F8158852C
:10188000209361063093620640936306509364068A
:1018900060913F0470914004809141049091420412
:1018A00000912F04109130042091310430913204C2
:1018B000601B710B820B930B0E94CB2D20E030E05C
:1018C0004FE753E40E942A2EA70196010E946F2F32
:1018D00020E030E0A9010E94173018160CF0C3C4B4
:1018E00060913F04709140048091410490914204C2
:1018F00000912F0410913004209131043091320472
:10190000601B710B820B930B0E94CB2D20E030E00B
:101910004FE753E40E942A2EA70196010E946F2FE1
:101920000E94E12F69877A878B879C8789859A85B2
:10193000AB85BC858093650690936606A093670689
:10194000B09368066091430470914404809145040B
:101950009091460400913304109134042091350491
:1019600030913604601B710B820B930B0E94CB2DC0
:1019700020E030E04FE753E40E942A2EA3019201B9
:101980000E946F2F20E030E0A9010E941730181646
:101990000CF08BC460914304709144048091450421
:1019A0009091460400913304109134042091350441
:1019B00030913604601B710B820B930B0E94CB2D70
:1019C00020E030E04FE753E40E942A2EA301920169
:1019D0000E946F2F0E94E12F6D877E878F87988BE3
:1019E0002D853E854F8558892093690630936A0678
:1019F00040936B0650936C066091470470914804C5
:101A00008091490490914A04009137041091380460
:101A10002091390430913A04601B710B820B930BB7
:101A20000E94CB2D20E030E04FE753E40E942A2EA5
:101A3000A30192010E946F2F20E030E0A9010E94D3
:101A4000173018160CF053C4609147047091480485
:101A50008091490490914A04009137041091380410
:101A60002091390430913A04601B710B820B930B67
:101A70000E94CB2D20E030E04FE753E40E942A2E55
:101A8000A30192010E946F2F0E94E12F698B7A8B34
:101A90008B8B9C8B89899A89AB89BC8980936D06D5
:101AA00090936E06A0936F06B09370066D817E8151
:101AB0008F81988529853A854B855C85620F731FD8
:101AC000841F951F2D853E854F855889620F731F92
:101AD000841F951F29893A894B895C89620F731F7E
:101AE000841F951F0E94CB2D20E030E040E85EE38C
:101AF0000E942A2E0E94E12F6093890670938A0625
:101B000080938B0690938C0620E030E0A901C701FA
:101B1000B6010E94C42D87FD0CC401E010E01A8EAE
:101B2000198E20E030E0A901C701B6010E941730EC
:101B300018160CF000E02091890630918A06409139
:101B40008B0650918C068D819E81AF81B885281BB4
:101B5000390B4A0B5B0BB8018A8D998D0E9421309D
:101B60000E94CB2DA50194010E942A2E6D8B7E8BA5
:101B70008F8B988F20E030E0A901C701B6010E9449
:101B8000173018160CF4DCC3A701960150582983AE
:101B90003A834B835C8329813A814B815C816D89D7
:101BA0007E898F89988D0E942A2E20E030E04FE7B1
:101BB00053E40E946F2FA70196010E94032F20E09B
:101BC00030E04FE753EC0E94C42D61E07FEF87FDCA
:101BD00062C02091890630918A0640918B0650910F
:101BE0008C068D819E81AF81B885281B390B4A0BED
:101BF0005B0BB8018A8D998D0E9421300E94CB2DFC
:101C0000A50194010E942A2E29813A814B815C8191
:101C10000E942A2E20E030E04FE753E40E946F2F0D
:101C2000A70196010E94032F20E030E04FE753E424
:101C30000E9417306FEF70E018166CF12091890642
:101C400030918A0640918B0650918C068D819E8141
:101C5000AF81B885281B390B4A0B5B0BB8018A8D05
:101C6000998D0E9421300E94CB2DA50194010E94E4
:101C70002A2E29813A814B815C810E942A2E20E004
:101C800030E04FE753E40E946F2FA70196010E94B6
:101C9000032F0E94E12F70937206609371062091CA
:101CA000890630918A0640918B0650918C06898571
:101CB0009A85AB85BC85281B390B4A0B5B0BB80199
:101CC0008A8D998D0E9421300E94CB2DA50194010F
:101CD0000E942A2E29813A814B815C810E942A2E02
:101CE00020E030E04FE753E40E946F2FA7019601F8
:101CF0000E94032F20E030E04FE753EC0E94C42DF8
:101D000061E07FEF87FD62C02091890630918A06ED
:101D100040918B0650918C0689859A85AB85BC8550
:101D2000281B390B4A0B5B0BB8018A8D998D0E94D9
:101D300021300E94CB2DA50194010E942A2E2981D9
:101D40003A814B815C810E942A2E20E030E04FE7EF
:101D500053E40E946F2FA70196010E94032F20E0F9
:101D600030E04FE753E40E9417306FEF70E0181631
:101D70006CF12091890630918A0640918B06509132
:101D80008C0689859A85AB85BC85281B390B4A0B47
:101D90005B0BB8018A8D998D0E9421300E94CB2D5A
:101DA000A50194010E942A2E29813A814B815C81F0
:101DB0000E942A2E20E030E04FE753E40E946F2F6C
:101DC000A70196010E94032F0E94E12F70937406D1
:101DD0006093730620E030E0A901C301B2010E94C4
:101DE000C42D87FDB2C201E010E019861D8220E0FB
:101DF00030E0A901C301B2010E94173018160CF09F
:101E000000E02091890630918A0640918B0650911E
:101E10008C068D859E85AF85B889281B390B4A0BAA
:101E20005B0BB80189859D810E9421300E94CB2DDA
:101E3000A50194010E942A2E69837A838B839C8357
:101E400020E030E0A901C301B2010E941730730104
:101E50006201181624F0F7FAF094F7F8F094A7014D
:101E6000960169817A818B819C810E942A2E20E0D3
:101E700030E04FE753E40E946F2FA30192010E94CC
:101E8000032F20E030E04FE753EC0E94C42D61E0C7
:101E90007FEF87FD5EC02091890630918A064091D0
:101EA0008B0650918C068D859E85AF85B889281B41
:101EB000390B4A0B5B0BB80189859D810E9421304B
:101EC0000E94CB2DA50194010E942A2EA701960104
:101ED0000E942A2E20E030E04FE753E40E946F2F4B
:101EE000A30192010E94032F20E030E04FE753E46A
:101EF0000E9417306FEF70E018165CF12091890690
:101F000030918A0640918B0650918C068D859E8576
:101F1000AF85B889281B390B4A0B5B0BB801898543
:101F20009D810E9421300E94CB2DA50194010E9429
:101F30002A2EA70196010E942A2E20E030E04FE7CA
:101F400053E40E946F2FA30192010E94032F0E946D
:101F5000E12F709376066093750620918906309183
:101F60008A0640918B0650918C0689899A89AB89A3
:101F7000BC89281B390B4A0B5B0BB80189859D81F5
:101F80000E9421300E94CB2DA50194010E942A2E8F
:101F9000A70196010E942A2E20E030E04FE753E48B
:101FA0000E946F2FA30192010E94032F20E030E0D6
:101FB0004FE753EC0E94C42D87FDE6C620918906A9
:101FC00030918A0640918B0650918C0689899A89B6
:101FD000AB89BC89281B390B4A0B5B0BB80189857F
:101FE0009D810E9421300E94CB2DA50194010E9469
:101FF0002A2EA70196010E942A2E20E030E04FE70A
:1020000053E40E946F2FA30192010E94032F20E04E
:1020100030E04FE753E40E94173018160CF4B7C6AF
:102020002091890630918A0640918B0650918C064A
:1020300089899A89AB89BC89281B390B4A0B5B0BB0
:10204000B80189859D810E9421300E94CB2DA50178
:1020500094010E942A2EA70196010E942A2E20E0B8
:1020600030E04FE753E40E946F2FA30192010E94DA
:10207000032F0E94E12F709378066093770680917A
:102080007106909172064496899720F41092720618
:102090001092710680917306909174064496899708
:1020A00020F4109274061092730680917506909138
:1020B00076064496899720F410927606109275065B
:1020C00080917706909178064496899720F4109233
:1020D000780610927706A0917706B0917806BA83B9
:1020E000A9830091750610917606E0907306F09032
:1020F0007406C0907106D0907206809140068823C5
:1021000009F4A2C7B2E0CB16BFEFDB060CF05BC64A
:10211000809141060E946B0A809142060E946B0AE0
:10212000E0914B06F0914C06808190915A06892BE4
:102130008083E0914906F0914A069081809159068A
:1021400080958923808332E0E3163FEFF3060CF09D
:102150007BC6809143060E946B0A809144060E94D0
:102160006B0AE0914F06F0915006808190915C06D9
:10217000892B8083E0914D06F0914E0690818091ED
:102180005B0680958923808302305FEF15070CF092
:102190009CC6809145060E946B0A809146060E946B
:1021A0006B0AE0915306F0915406808190915E068F
:1021B000892B8083E0915106F091520690818091A5
:1021C0005D0680958923808389819A8182309F4F23
:1021D0000CF0BBC6809147060E946B0A80914806AE
:1021E0000E946B0AE0915706F09158068081909109
:1021F0006006892B8083E0915506F0915606908108
:1022000080915F06C0C6C12CD12C2FE7E22E23ECB3
:10221000F22E2ACA412C512C8FE7682E83EC782E9F
:1022200045CA60913B0470913C0480913D049091BB
:102230003E0400912B0410912C0420912D04309128
:102240002E04601B710B820B930B0E94CB2D20E0A0
:1022500030E04FE753E40E942A2EA70196010E9426
:102260006F2F905803CB60913F0470914004809190
:1022700041049091420400912F0410913004209168
:10228000310430913204601B710B820B930B0E945E
:10229000CB2D20E030E04FE753E40E942A2EA70127
:1022A00096010E946F2F90583BCB60914304709130
:1022B00044048091450490914604009133041091A8
:1022C00034042091350430913604601B710B820B6D
:1022D000930B0E94CB2D20E030E04FE753E40E94A7
:1022E0002A2EA30192010E946F2F905873CB609108
:1022F0004704709148048091490490914A040091E8
:102300003704109138042091390430913A04601B4D
:10231000710B820B930B0E94CB2D20E030E04FE736
:1023200053E40E942A2EA30192010E946F2F90581D
:10233000ABCB0FEF1FEF3FEF3A8F4FEF498FFBCB48
:10234000C982DA82EB82FC8226CC0FEF1FEF9FEF6F
:102350009987AFEFAD8355CD60913B0470913C04FC
:1023600080913D0490913E0400912B0410912C0427
:1023700020912D0430912E04601B710B820B930B66
:102380000E94CB2D20E030E04FE753E40E942A2E3C
:10239000A70196010E946F2F20E030E0A9010E9462
:1023A000173018160CF021C260913B0470913C0468
:1023B00080913D0490913E0400912B0410912C04D7
:1023C00020912D0430912E04601B710B820B930B16
:1023D0000E94CB2D20E030E04FE753E40E942A2EEC
:1023E000A70196010E946F2F0E94E12F69837A83D3
:1023F0008B839C8329813A814B815C812093610688
:1024000030936206409363065093640660913F04E4
:1024100070914004809141049091420400912F04F6
:10242000109130042091310430913204601B710B03
:10243000820B930B0E94CB2D20E030E04FE753E45A
:102440000E942A2EA70196010E946F2F20E030E003
:10245000A9010E94173018160CF0E9C160913F04E1
:1024600070914004809141049091420400912F04A6
:10247000109130042091310430913204601B710BB3
:10248000820B930B0E94CB2D20E030E04FE753E40A
:102490000E942A2EA70196010E946F2F0E94E12F11
:1024A0006D837E838F8398878D819E81AF81B88570
:1024B0008093650690936606A0936706B0936806BE
:1024C0001092690610926A0610926B0610926C06C2
:1024D00010926D0610926E0610926F0610927006A2
:1024E00069817A818B819C812D813E814F815885C4
:1024F000620F731F841F951F0E94CB2D20E030E0D8
:1025000040E05FE30E942A2E0E94E12F609389063B
:1025100070938A0680938B0690938C0620E030E0BF
:10252000A901C701B6010E94C42D87FDA2C111E017
:10253000198A1D8600E020E030E0A901C701B6013C
:102540000E94173018160CF010E020918906309187
:102550008A0640918B0650918C0689819A81AB81C5
:10256000BC81281B390B4A0B5B0B612F79898D8548
:10257000902F0E9421300E94CB2DA50194010E9432
:102580002A2E69877A878B879C8720E030E0A90113
:10259000C701B6010E94173026013701181624F032
:1025A00077FA709477F87094A301920169857A851F
:1025B0008B859C850E942A2E20E030E04FE753E473
:1025C0000E946F2FA70196010E94032F20E030E0A8
:1025D0004FE753EC0E94C42D61E07FEF87FD60C0A0
:1025E0002091890630918A0640918B0650918C0685
:1025F00089819A81AB81BC81281B390B4A0B5B0B0B
:10260000612F79898D85902F0E9421300E94CB2DDA
:10261000A50194010E942A2EA30192010E942A2E54
:1026200020E030E04FE753E40E946F2FA7019601AE
:102630000E94032F20E030E04FE753E40E94173060
:102640006FEF70E0181664F12091890630918A06C8
:1026500040918B0650918C0689819A81AB81BC8117
:10266000281B390B4A0B5B0B612F79898D85902FC5
:102670000E9421300E94CB2DA50194010E942A2E98
:10268000A30192010E942A2E20E030E04FE753E49C
:102690000E946F2FA70196010E94032F0E94E12F35
:1026A00070937206609371062091890630918A06B4
:1026B00040918B0650918C068D819E81AF81B885AB
:1026C000281B390B4A0B5B0B612F79898D85902F65
:1026D0000E9421300E94CB2DA50194010E942A2E38
:1026E000A30192010E942A2E20E030E04FE753E43C
:1026F0000E946F2FA70196010E94032F20E030E077
:102700004FE753EC0E94C42D61E07FEF87FD60C06E
:102710002091890630918A0640918B0650918C0653
:102720008D819E81AF81B885281B390B4A0B5B0BCD
:10273000612F79898D85902F0E9421300E94CB2DA9
:10274000A50194010E942A2EA30192010E942A2E23
:1027500020E030E04FE753E40E946F2FA70196017D
:102760000E94032F20E030E04FE753E40E9417302F
:102770006FEF70E0181664F12091890630918A0697
:1027800040918B0650918C068D819E81AF81B885DA
:10279000281B390B4A0B5B0B612F79898D85902F94
:1027A0000E9421300E94CB2DA50194010E942A2E67
:1027B000A30192010E942A2E20E030E04FE753E46B
:1027C0000E946F2FA70196010E94032F0E94E12F04
:1027D00070937406609373061092760610927506D5
:1027E00010927806109277064ACC60913B04709163
:1027F0003C0480913D0490913E0400912B04109183
:102800002C0420912D0430912E04601B710B820B3F
:10281000930B0E94CB2D20E030E04FE753E40E9461
:102820002A2EA70196010E946F2F9058DDCD60914E
:102830003F047091400480914104909142040091C2
:102840002F04109130042091310430913204601B28
:10285000710B820B930B0E94CB2D20E030E04FE7F1
:1028600053E40E942A2EA70196010E946F2F9058D0
:1028700015CE1FEF3FEF398B4FEF4D870FEF65CE32
:10288000C301B2010E94C42D10926106109262062B
:102890001092630610926406109265061092660606
:1028A0001092670610926806882309F473C260913B
:1028B0004304709144048091450490914604009132
:1028C0003304109134042091350430913604601B98
:1028D000710B820B930B0E94CB2D20E030E04FE771
:1028E00053E40E942A2EA30192010E946F2F20E040
:1028F00030E0A9010E94173018160CF0FAC160915F
:1029000043047091440480914504909146040091E1
:102910003304109134042091350430913604601B47
:10292000710B820B930B0E94CB2D20E030E04FE720
:1029300053E40E942A2EA30192010E946F2F0E944D
:10294000E12F69837A838B839C8329813A814B8130
:102950005C812093690630936A0640936B0650931E
:102960006C066091470470914804809149049091ED
:102970004A040091370410913804209139043091B1
:102980003A04601B710B820B930B0E94CB2D20E04D
:1029900030E04FE753E40E942A2EA30192010E94E7
:1029A0006F2F20E030E0A9010E94173018160CF0BC
:1029B000C2C160914704709148048091490490918C
:1029C0004A04009137041091380420913904309161
:1029D0003A04601B710B820B930B0E94CB2D20E0FD
:1029E00030E04FE753E40E942A2EA30192010E9497
:1029F0006F2F0E94E12F6D837E838F8398878D8157
:102A00009E81AF81B88580936D0690936E06A093EA
:102A10006F06B093700669817A818B819C812D81CC
:102A20003E814F815885620F731F841F951F0E943E
:102A3000CB2D20E030E040E05FE30E942A2E0E9490
:102A4000E12F6093890670938A0680938B0690939A
:102A50008C061092720610927106109274061092F3
:102A6000730620E030E0A901C301B2010E94C42D29
:102A700087FD83C111E0198A1D8600E020E030E067
:102A8000A901C301B2010E94173018160CF010E022
:102A90002091890630918A0640918B0650918C06D0
:102AA00080902B0690902C06A0902D06B0902E06BC
:102AB00089819A81AB81BC81281B390B4A0B5B0B46
:102AC000612F79898D85902F0E9421300E94CB2D16
:102AD000A50194010E942A2E69877A878B879C879B
:102AE00020E030E0A901C301B2010E941730730158
:102AF0006201181624F0F7FAF094F7F8F094A701A1
:102B0000960169857A858B859C850E942A2E20E016
:102B100030E04FE753E40E946F2FA30192010E941F
:102B2000032F20E030E04FE753EC0E94C42D61E01A
:102B30007FEF87FD60C02091890630918A06409121
:102B40008B0650918C0689819A81AB81BC81281BB0
:102B5000390B4A0B5B0B612F79898D85902F0E9471
:102B600021300E94CB2DA50194010E942A2EA7019D
:102B700096010E942A2E20E030E04FE753E40E94A5
:102B80006F2FA30192010E94032F20E030E04FE756
:102B900053E40E9417306FEF70E0181664F1209133
:102BA000890630918A0640918B0650918C06898166
:102BB0009A81AB81BC81281B390B4A0B5B0B612FBF
:102BC00079898D85902F0E9421300E94CB2DA501FF
:102BD00094010E942A2EA70196010E942A2E20E02D
:102BE00030E04FE753E40E946F2FA30192010E944F
:102BF000032F0E94E12F7093760660937506209153
:102C0000890630918A0640918B0650918C068D8101
:102C10009E81AF81B885281B390B4A0B5B0B612F56
:102C200079898D85902F0E9421300E94CB2DA5019E
:102C300094010E942A2EA70196010E942A2E20E0CC
:102C400030E04FE753E40E946F2FA30192010E94EE
:102C5000032F20E030E04FE753EC0E94C42D87FDA6
:102C600093C02091890630918A0640918B0650913D
:102C70008C068D819E81AF81B885281B390B4A0B4C
:102C80005B0B612F79898D85902F0E9421300E94E6
:102C9000CB2DA50194010E942A2EA70196010E9426
:102CA0002A2E20E030E04FE753E40E946F2FA3016B
:102CB00092010E94032F20E030E04FE753E40E948E
:102CC000173018160CF463C02091890630918A06DB
:102CD00040918B0650918C068D819E81AF81B88585
:102CE000281B390B4A0B5B0B612F79898D85902F3F
:102CF000AAC9609143047091440480914504909165
:102D0000460400913304109134042091350430912D
:102D10003604601B710B820B930B0E94CB2D20E0BD
:102D200030E04FE753E40E942A2EA30192010E9453
:102D30006F2F905804CE60914704709148048091A1
:102D4000490490914A04009137041091380420916D
:102D5000390430913A04601B710B820B930B0E9473
:102D6000CB2D20E030E04FE753E40E942A2EA30150
:102D700092010E946F2F90583CCE1FEF3FEF398B8E
:102D80004FEF4D870FEF84CE61E07FEF74C96FEF97
:102D900070E071C91092690610926A0610926B0673
:102DA00010926C0610926D0610926E0610926F06CD
:102DB00010927006109272061092710610927406AC
:102DC0001092730609CD2FEFC216D10494F08091B2
:102DD00041060E946B0A809142060E946B0AE091B4
:102DE0004906F0914A06808190915906892B80838B
:102DF00013C0D7FE09C0662777276C197D0980911B
:102E000042060E94B60995C980914106C114D104B9
:102E100059F0B6010E94B609E0914B06F0914C06BC
:102E2000908180915A068CC90E946B0A809142065B
:102E30000E946B0AE0914906F0914A0690818091C8
:102E4000590680958923D3CF4FEFE416F10494F00F
:102E5000809143060E946B0A809144060E946B0A8F
:102E6000E0914D06F0914E06808190915B06892B92
:102E7000808313C0F7FE09C0662777276E197F0984
:102E8000809144060E94B60975C980914306E114F9
:102E9000F10459F0B7010E94B609E0914F06F09194
:102EA0005006908180915C066CC90E946B0A8091EB
:102EB00044060E946B0AE0914D06F0914E06908107
:102EC00080915B0680958923D3CF0F3F110594F045
:102ED000809145060E946B0A809146060E946B0A0B
:102EE000E0915106F0915206808190915D06892B08
:102EF000808313C017FF09C066277727601B710BFB
:102F0000809146060E94B60955C980914506011573
:102F1000110559F0B8010E94B609E0915306F091ED
:102F20005406908180915E064CC90E946B0A809184
:102F300046060E946B0AE0915106F091520690817C
:102F400080915D0680958923D3CF29813A812F3FD7
:102F500031050CF452C0809147060E946B0A8091A3
:102F600048060E946B0AE0915506F0915606808152
:102F700090915F06892B8083E0915706F091580667
:102F80009081809160068095892380838091790665
:102F900090917A06A0917B06B0917C068093810681
:102FA00090938206A0938306B093840680917D0659
:102FB00090917E06A0917F06B09180068093850651
:102FC00090938606A0938706B09388066A960FB6FC
:102FD000F894DEBF0FBECDBFDF91CF911F910F914F
:102FE000FF90EF90DF90CF90BF90AF909F908F9029
:102FF0007F906F905F904F90089549815A8157FF5D
:1030000009C0BA01719561957109809148060E94C5
:10301000B609F1C880914706A981BA81109721F0BD
:10302000BD010E94B609A8CF0E946B0A8091480694
:103030000E946B0AE0915506F091560690818091AE
:103040005F068095892397CFB601D7FE02C060E066
:1030500070E0809137060E9433048FEF9FEFD7FC1A
:1030600008C031E020E0C114D10409F430E0832F1E
:10307000922F1C141D0414F4D12CC12CC89EB00135
:10308000C99E700DD89E700D112480913B060E9440
:103090003304B701F7FE02C060E070E080913806AB
:1030A0000E9433048FEF9FEFF7FC08C031E020E06F
:1030B000E114F10409F430E0832F922F1E141F0451
:1030C00014F4F12CE12CE89EB001E99E700DF89EFD
:1030D000700D112480913C060E943304B80117FF43
:1030E00002C060E070E0809139060E9433048FEFE7
:1030F0009FEF17FD08C031E020E00115110509F42C
:1031000030E0832F922F1016110614F410E000E027
:10311000089FB001099F700D189F700D11248091B8
:103120003D060E94330469817A8129813A8137FF03
:1031300002C060E070E080913A060E943304498149
:103140005A818FEF9FEF57FD07C031E020E0452BFC
:1031500009F430E0832F922FA981BA811A161B0639
:1031600014F41A82198229813A81289FB001299F7B
:10317000700D389F700D112480913E060E9433041B
:1031800005CFE091E205F091E30580819091E105A2
:103190008923A1F08091470490914804A0914904AB
:1031A000B0914A040196A11DB11D809347049093EC
:1031B0004804A0934904B0934A04089580914704B9
:1031C00090914804A0914904B0914A040197A10943
:1031D000B109EBCFE091E505F091E6058081909192
:1031E000E4058923A1F08091430490914404A091C7
:1031F0004504B09146040196A11DB11D809343047E
:1032000090934404A0934504B0934604089580919C
:10321000430490914404A0914504B0914604019761
:10322000A109B109EBCFE091E805F091E9058081B2
:103230009091E7058923A1F080913F04909140048B
:10324000A0914104B09142040197A109B109809372
:103250003F0490934004A0934104B0934204089526
:1032600080913F0490914004A0914104B0914204A8
:103270000196A11DB11DEBCFE091EB05F091EC059E
:1032800080819091EA058923A1F080913B0490917F
:103290003C04A0913D04B0913E040197A109B109FD
:1032A00080933B0490933C04A0933D04B0933E0470
:1032B000089580913B0490913C04A0913D04B0910D
:1032C0003E040196A11DB11DEBCF2F923F924F926C
:1032D0005F926F927F928F929F92AF92BF92CF92A6
:1032E000DF92EF92FF920F931F93CF93DF9300D063
:1032F0001F92CDB7DEB7FC014B01042F9681878169
:1033000099838A83208031802114310409F439C1E2
:10331000418550E0D10114968D919C9184179507B9
:10332000C8F4B12C8B2D0F900F900F900F90DF9160
:10333000CF911F910F91FF90EF90DF90CF90BF90B2
:10334000AF909F908F907F906F905F904F903F9045
:103350002F900895F101808191E0909377048093FC
:1033600099041092780410929A0420E0BE016F5FD5
:103370007F4FC1010E94A008B82E882391F2802FB0
:1033800090E09C838B83D12CC12C01E0AB81BC816C
:10339000CA16DB0638F6F101848195817D01EC18AF
:1033A000FD088E159F0508F47C01D101AC900E94A8
:1033B00015052B013C0180917104811172C01E2DF5
:1033C000113208F010E20093710421E08B819C819E
:1033D0008E199F09C816D90608F420E020937004BE
:1033E000BFEFB0936F0410926E048FEF810F809344
:1033F0006D0400934C0480914C04AA0CA82AA0925E
:103400004C0480914B04813009F092C010924B041F
:103410000E9415052B013C0180914C048093BB0058
:103420008091730490917404A0917504B091760416
:10343000892B8A2B8B2BA1F00E94150520917304F8
:1034400030917404409175045091760464197509A3
:1034500086099709261737074807590708F442C015
:103460008091BC0083FDD8CFE5ECE093BC000E94C6
:1034700015052B013C0180917104813009F45CC079
:1034800080916E04811710F410916E04ADE4B4E0E5
:10349000E2E9F3E080E0811751F19D9191938F5F14
:1034A000FACF8091730490917404A0917504B09147
:1034B0007604892B8A2B8B2B09F47DCF0E9415056E
:1034C00020917304309174044091750450917604F6
:1034D0006419750986099709261737074807590798
:1034E00008F069CF809172040E94BE0510E010922E
:1034F0000404109303041E151F0409F012CF3401B5
:103500006C0C7D1C2301C201861997098E159F053D
:10351000A8F5D10111968D919C91DC01ED91FC9162
:103520000284F385E02D1995F20181932F01EBCFF1
:10353000F5EEF093BC009BCF8091730490917404DE
:10354000A0917504B0917604892B8A2B8B2B09F4FA
:1035500092CF0E941505209173043091740440911C
:103560007504509176046419750986099709261720
:1035700037074807590708F07ECFB4CFCE0CDF1CC1
:1035800005CFA281B381109709F4CBCE2481358178
:1035900010E0418550E02330310571F4816089836A
:1035A0009A834F5F5F4F9401BE016F5F7F4FCD01E4
:1035B0000E942908B82EB6CE2115310519F490685D
:1035C0009983F1CF2230310511F49F77F9CF213063
:1035D000310549F7906CF4CFCF93DF93EC01BC0138
:1035E000655F7F4F48850E946519882301F14885F2
:1035F00050E030E020E060E070E0CB0124173507B8
:10360000CCF4982F872F762F6627EA85E1110AC020
:10361000FA01E21BF30BEC0FFD1FE2856E2B2F5F0F
:103620003F4FECCFFE01E20FF31FE385F7CF6FEFC3
:103630007FEFCB01DF91CF9108958F929F92AF9250
:10364000BF92CF92DF92EF92FF920F931F93CF938F
:10365000DF93EC014A015B01888199810E94EC1A99
:103660002A8101E010E002C0000F111F2A95E2F745
:1036700001501109012E000C220B330BAB816801A4
:1036800079010A2E04C0CC0CDD1CEE1CFF1C0A9430
:10369000D2F7C094D094E094F094C622D722E822C6
:1036A000F922E881F981B901A801482159216A214B
:1036B0007B2104C0440F551F661F771FAA95D2F7C0
:1036C0004C295D296E297F292085CF01DF91CF917B
:1036D0001F910F91FF90EF90DF90CF90BF90AF9030
:1036E0009F908F900C94F7080F931F93CF93DF93C5
:1036F000EC01888199810E94EC1AAB01BC012A81FE
:1037000081E090E002C0880F991F2A95E2F70197A7
:10371000092E000CAA0BBB0B2B8104C07695679574
:10372000579547952A95D2F78C019D0104231523BF
:1037300026233723C901B801DF91CF911F910F9143
:103740000895AF92BF92CF92DF92EF92FF920F93C4
:103750001F93CF93DF93CDB7DEB7E8970FB6F894FA
:10376000DEBF0FBECDBF8C01FC01868D978D1BA2E5
:103770001CA21DA21EA29D8B8C8B1F8A1E8AFF2459
:10378000F394FD8E8BE390E09B8F8A8F1E8E8EE0EC
:103790008C8F4EE0BE01695D7F4FCE0144960E9442
:1037A00065198FA198A5982789279827F80195A7CB
:1037B00084A789A59AA598278927982797A786A7D8
:1037C0008BA59CA598278927982791AB80AB6DA5E1
:1037D0007EA576276727762773AB62AB8FA598A95E
:1037E00098278927982795AB84AB89A99AA9982708
:1037F0008927982797AB86AB8BA99CA998278927FF
:10380000982791AF80AF072E000C880B990B0E9470
:10381000CB2D20E030E04AEA53E40E946F2F28EBE2
:103820003EE142E152E40E94032FF8016283738378
:1038300084839583868D978D188A198A1A8A1B8AA4
:103840009A8389831C821B82FA868CE190E0988798
:103850008F831B86F986CE0101965C019EAB8DABF2
:1038600082E08FAB83E088AFCE01C5960E94741BC7
:10387000C12CD12CE12CE5E4FE2E63307105E1F082
:103880006230710599F06130710509F4D6C0C12C20
:10389000D12CF0E8EF2EFFE3FF2E672B69F4C12C4B
:1038A000D12C50E8E52E56E4F52E06C0C12CD12CC3
:1038B00070E8E72E75E4F72EF80164A575A5072ECC
:1038C000000C880B990B0E94CB2DA70196010E943A
:1038D0006F2FF801668377838087918766A577A528
:1038E000072E000C880B990B0E94CB2DA701960187
:1038F0000E946F2FF801628773878487958760A97C
:1039000071A9072E000C880B990B0E94CB2DA701E3
:1039100096010E946F2FF80166877787808B918BC5
:10392000868D978D188A198A1A8A1B8A9A838983A9
:103930001C821B8281E08A872BE130E038872F834D
:103940001B868987BEAAADAA82E08FAB83E088AFD1
:10395000CE01C5960E94741BC12CD12C33E0E32EFE
:1039600033E4F32E6115710519F1C12CD12C23E834
:10397000E22E22E4F22E61307105D1F093E3C92EDC
:10398000DC2C93E0E92E92E4F92E6230710581F08F
:10399000C12CD12C40E8E42E4FE3F42E63307105A6
:1039A00039F483E3C82EDC2C83E8E82E81E4F82E7A
:1039B000F80164A975A9072E000C880B990B0E94C9
:1039C000CB2DA70196010E946F2FF801628B738B9C
:1039D000848B958B66A977A9072E000C880B990B11
:1039E0000E94CB2DA70196010E946F2FF801668BD4
:1039F000778B808F918F60AD71AD072E000C880B97
:103A0000990B0E94CB2DA70196010E946F2FF80100
:103A1000628F738F848F958FE8960FB6F894DEBF10
:103A20000FBECDBFDF91CF911F910F91FF90EF900F
:103A3000DF90CF90BF90AF900895C12CD12CE12C96
:103A400066E4F62E39CFFC0101900020E9F73197AA
:103A5000AF01481B590BBC0188E395E00C943C0274
:103A60008F929F92AF92BF920F931F93CF93DF934A
:103A7000CDB7DEB7A1970FB6F894DEBF0FBECDBFAE
:103A800019A2423008F44AE08E010F5D1F4F842EC8
:103A9000912CB12CA12CA50194010E943130E62F6C
:103AA000B901CA01EA30F4F4E05DD801EE938D016A
:103AB000232B242B252B79F790E080E0109719F029
:103AC000CD010E94231DA1960FB6F894DEBF0FBE54
:103AD000CDBFDF91CF911F910F91BF90AF909F907D
:103AE0008F900895E95CE1CFCF93DF930E94231D6F
:103AF000EC018AE692E00E94231D8C0F9D1FDF914E
:103B0000CF9108953F924F925F926F927F928F92E2
:103B10009F92AF92BF92CF92DF92EF92FF920F935C
:103B20001F93CF93DF937C018B016A010E946C0588
:103B30004B015C018DEE95E00E94A11BF6013496CD
:103B400080E2382EDF01832D1D928A95E9F784E209
:103B500090E0A0E0B0E0F60180839183A283B3837C
:103B6000CDEED5E08AA59BA5B0E0A0E08483958347
:103B7000A683B7838DE090E0A0E0B0E080879187D6
:103B8000A287B387808A918AA28AB38A8A819B811D
:103B9000AC81BD81848B958BA68BB78BF701349656
:103BA000DF01832D1D928A95E9F7412C512C3201BA
:103BB0004394D7014D925D926D927C9213978EA1A2
:103BC0009FA1B0E0A0E0F70184839583A683B7832B
:103BD0004086518662867386808A918AA28AB38AD9
:103BE0002AE038EE4CE151E46E817F818885998529
:103BF0000E942A2ED70154966D937D938D939C93AA
:103C000057972AE038EE4CE151E46A857B858C8534
:103C10009D850E942A2EF701608F718F828F938F6E
:103C20002AE038EE4CE151E46E857F8588899989D8
:103C30000E942A2ED7015C966D937D938D939C9361
:103C40005F97F8013496DF011D923A94E9F7F80185
:103C5000408251826282738288A599A5B0E0A0E07B
:103C600084839583A683B78384E090E0A0E0B0E0EE
:103C700080879187A287B387808A918AA28AB38A34
:103C800025E33AEF4EE85CE36A897B898C899D895C
:103C90000E942A2EF801648B758B868B978B25E307
:103CA0003AEF4EE85CE36E897F89888D998D0E949A
:103CB0002A2ED80158966D937D938D939C935B9794
:103CC00025E33AEF4EE85CE36A8D7B8D8C8D9D8D0C
:103CD0000E942A2EF801648F758F868F978F81E05E
:103CE000DF91CF911F910F91FF90EF90DF90CF90D8
:103CF000BF90AF909F908F907F906F905F904F900C
:103D00003F9008950F931F93CF93DF938C01EB01A6
:103D1000DC0115968D919C910E94A11BF8010581F3
:103D200016810E946C05AB01BC01FE01349680E255
:103D3000DF011D928A95E9F784E290E0A0E0B0E00F
:103D400088839983AA83BB83F80182A593A5B0E0F9
:103D5000A0E08C839D83AE83BF838DE090E0A0E0E4
:103D6000B0E088879987AA87BB87488B598B6A8B75
:103D70007B8B82819381A481B5818C8B9D8BAE8B53
:103D8000BF8B81E0DF91CF911F910F9108958F92AA
:103D90009F92AF92BF92CF92DF92EF92FF920F93DA
:103DA0001F93CF93DF938C01EB01DC0115968D916E
:103DB0009C910E94A11BF801058116810E946C054F
:103DC000FE01349620E2DF011D922A95E9F7C12C0D
:103DD000D12C7601C394C882D982EA82FB82F80191
:103DE00026A137A14901B12CA12C8C829D82AE82E3
:103DF000BF82C886D986EA86FB86688B798B8A8BD8
:103E00009B8B2AE038EE4CE151E466817781808516
:103E100091850E942A2E6C8B7D8B8E8B9F8B2AE046
:103E200038EE4CE151E4D8011A966D917D918D9157
:103E30009C911D970E942A2E688F798F8A8F9B8F65
:103E40002AE038EE4CE151E4F801668577858089F7
:103E500091890E942A2E6C8F7D8F8E8F9F8F81E09B
:103E6000DF91CF911F910F91FF90EF90DF90CF9056
:103E7000BF90AF909F908F9008950F931F93CF9313
:103E8000DF938C01EB01DC0115968D919C910E94D2
:103E9000A11BF801058116810E946C05AB01BC01D4
:103EA000FE01349680E2DF011D928A95E9F781E0F8
:103EB00090E0A0E0B0E088839983AA83BB83F801F7
:103EC00080A591A5B0E0A0E08C839D83AE83BF83E5
:103ED00084E090E0A0E0B0E088879987AA87BB875C
:103EE000488B598B6A8B7B8B25E33AEF4EE85CE37A
:103EF00062897389848995890E942A2E6C8B7D8BB7
:103F00008E8B9F8B25E33AEF4EE85CE3D801569603
:103F10006D917D918D919C9159970E942A2E688F69
:103F2000798F8A8F9B8F25E33AEF4EE85CE3F801A7
:103F3000628D738D848D958D0E942A2E6C8F7D8F5E
:103F40008E8F9F8F81E0DF91CF911F910F91089508
:103F50000C94F7300C94F7300C94F7309F92AF929A
:103F6000BF92CF92DF92EF92FF920F931F93CF9366
:103F7000DF93CDB7DEB7AA970FB6F894DEBF0FBEBA
:103F8000CDBF8C01DC0197965C934E939697CA0146
:103F9000019699969C938E9398974E5F5F4F9B9650
:103FA0005C934E939A975E962D913C911BA21CA216
:103FB0001DA21EA23D8B2C8B1F8A1E8A81E08D8F35
:103FC0004BE650E05B8F4A8F1E8E8C8F188A198AC1
:103FD0001A8A1B8A3A8329831C821B828A8728E6D5
:103FE00030E038872F831B8689875E01B4E1AB0EF2
:103FF000B11CB8A6AFA289A787E08AA741E050E02C
:1040000060E070E0CE0187960E941D1BCE0187966E
:104010000E94741B613071058105910539F461E0DE
:1040200070E080E090E00E943A05F0CF64E670E036
:1040300080E090E00E943A0520E047E050E060E038
:1040400070E0FE0131966F01CF010E94F70864E62F
:1040500070E080E090E00E943A05D8015E968D9174
:104060009C91188A198A1A8A1B8A9A8389831C82CE
:104070001B82FF24F394FA8689E190E098878F836E
:104080001B86F98620E040E050E0BA01C6010E949C
:10409000F708F801868D978D188A198A1A8A1B8A63
:1040A0009A8389831C821B82FA868AE190E0988732
:1040B0008F831B86F986DD8ACC8A83E0E82EEE8A20
:1040C0001F8A40E050E0BA01C5010E941D1BD801C3
:1040D0005E968D919C91188A198A1A8A1B8A9A83F6
:1040E00089831C821B82FA868BE190E098878F83FC
:1040F0001B86F986DD8ACC8A92E0992E9E8AEF8A09
:1041000041E050E060E070E0C5010E941D1BF80135
:10411000868D978D188A198A1A8A1B8A9A838983B1
:104120001C821B82FA868CE190E098878F831B8625
:10413000F986DD8ACC8A9E8AEF8A40E050E0BA0197
:10414000C5010E941D1BD8015E968D919C91188A15
:10415000198A1A8A1B8A9A8389831C821B82FA868F
:104160008BE690E098878F831B86F98620E041E0FC
:1041700050E060E070E0C6010E94F70864E670E07D
:1041800080E090E00E943A05F80180A191A100979B
:1041900039F0DC01ED91FC910280F381E02D19955D
:1041A000F80182A193A1009739F0DC01ED91FC9117
:1041B0000280F381E02D1995F80184A195A1009763
:1041C00039F0DC01ED91FC910280F381E02D19952D
:1041D00087E090E00E945B30FC0186E392E09183EF
:1041E000808380E596E09483838316830583D801DA
:1041F0009196FC93EE93909787E090E00E945B305D
:10420000FC0188E292E09183808381E596E09483CB
:10421000838316830583D8019396FC93EE9392973C
:1042200087E090E00E945B30FC018AE192E091839C
:10423000808382E596E09483838316830583D80187
:104240009596FC93EE93949781E0AA960FB6F89416
:10425000DEBF0FBECDBFDF91CF911F910F91FF90B9
:10426000EF90DF90CF90BF90AF909F90089585ED35
:104270008093BC008091730490917404A0917504A4
:10428000B09176040796A11DB11D23E0B695A795C0
:10429000979587952A95D1F72091BC0024FD03C0FE
:1042A00010927104089540917304509174046091C8
:1042B000750470917604452B462B472B69F30097C4
:1042C000A105B10541F02AE22A95F1F700C0019756
:1042D000A109B109E1CF809172040C94BE050F933E
:1042E0001F93CF93DF938C01EB0188E2FB011192C6
:1042F0008A95E9F74BE050E06DE672E0CE010E944E
:1043000080311B8681E090E0A0E0B0E08C879D8743
:10431000AE87BF87F80183819481092E000CAA0B18
:10432000BB0B888B998BAA8BBB8B8DE090E0A0E0B8
:10433000B0E08C8B9D8BAE8BBF8B1CA21DA21EA2EE
:104340001FA280E090E0A0E2B2EC8C8F9D8FAE8F38
:10435000BF8F80E090E0A2EDB2E4888F998FAA8FA2
:10436000BB8F84E09DEAA0E4BBE388A399A3AAA342
:10437000BBA3DF91CF911F910F9108950F931F93CE
:10438000CF93DF938C01EB0188E2FB0111928A95B8
:10439000E9F74BE050E067E772E0CE010E94803120
:1043A0001B8641E050E060E070E04C875D876E87DF
:1043B0007F87F80183819481092E000CAA0BBB0B27
:1043C000888B998BAA8BBB8B4C8B5D8B6E8B7F8B79
:1043D0001CA21DA21EA21FA28AE098EEACE1B3ECC3
:1043E0008C8F9D8FAE8FBF8F8AE098EEACE1B3E4E7
:1043F000888F998FAA8FBB8F83E29BEDA9E7BDE3DE
:1044000088A399A3AAA3BBA3DF91CF911F910F917A
:1044100008950F931F93CF93DF938C01EB0188E2F4
:10442000FB0111928A95E9F74BE050E061E872E0F8
:10443000CE010E9480311B8681E090E0A0E0B0E0D8
:104440008C879D87AE87BF87F80183819481092E71
:10445000000CAA0BBB0B888B998BAA8BBB8B84E0BF
:1044600090E0A0E0B0E08C8B9D8BAE8BBF8B1CA24C
:104470001DA21EA21FA287ED93EAABE0B2EC8C8FC7
:104480009D8FAE8FBF8F87ED93EAABE0B2E4888F4C
:10449000998FAA8FBB8F8AE99BEAABE0B9E388A327
:1044A00099A3AAA3BBA3DF91CF911F910F91089568
:1044B0001F920F920FB60F9211240BB60F922F93EB
:1044C0003F934F935F936F937F938F939F93AF939C
:1044D000BF93EF93FF938BE994E00E94BA02FF91A0
:1044E000EF91BF91AF919F918F917F916F915F916C
:1044F0004F913F912F910F900BBE0F900FBE0F90D9
:104500001F9018951F920F920FB60F9211240BB6A1
:104510000F922F938F939F93EF93FF93E091AB04B0
:10452000F091AC048081E091B104F091B20482FD7D
:104530001DC090818091B4048F5F8F732091B5046A
:10454000821741F0E091B404F0E0E556FB4F958FFF
:104550008093B404FF91EF919F918F912F910F90D1
:104560000BBE0F900FBE0F901F9018958081F2CF59
:104570001F920F920FB60F9211240BB60F922F932A
:104580003F934F935F936F937F938F939F93AF93DB
:10459000BF93EF93FF9388E395E00E94BA02FF91E7
:1045A000EF91BF91AF919F918F917F916F915F91AB
:1045B0004F913F912F910F900BBE0F900FBE0F9018
:1045C0001F9018951F920F920FB60F9211240BB6E1
:1045D0000F922F938F939F93EF93FF93E091480552
:1045E000F09149058081E0914E05F0914F0582FDE3
:1045F0001DC09081809151058F5F8F73209152056E
:10460000821741F0E0915105F0E0E85CFA4F958F98
:1046100080935105FF91EF919F918F912F910F9072
:104620000BBE0F900FBE0F901F9018958081F2CF98
:104630001F920F920FB60F9211242F933F938F93D7
:104640009F93AF93BF938091F7039091F803A0914C
:10465000F903B091FA033091F60323E0230F2D37CD
:1046600058F50196A11DB11D2093F6038093F70321
:104670009093F803A093F903B093FA038091FB039E
:104680009091FC03A091FD03B091FE030196A11D42
:10469000B11D8093FB039093FC03A093FD03B093A3
:1046A000FE03BF91AF919F918F913F912F910F90FA
:1046B0000FBE0F901F90189526E8230F0296A11D9C
:1046C000B11DD2CF1F920F920FB60F9211240BB6CD
:1046D0000F922F933F934F935F936F937F938F939B
:1046E0009F93AF93BF93EF93FF93E0910E02F091EE
:1046F0000F021995FF91EF91BF91AF919F918F910B
:104700007F916F915F914F913F912F910F900BBED1
:104710000F900FBE0F901F9018951F920F920FB61B
:104720000F9211240BB60F922F933F934F935F93E9
:104730006F937F938F939F93AF93BF93EF93FF9369
:10474000E0910C02F0910D021995FF91EF91BF914C
:10475000AF919F918F917F916F915F914F913F9119
:104760002F910F900BBE0F900FBE0F901F901895BA
:104770001F920F920FB60F9211240BB60F922F9328
:104780003F934F935F936F937F938F939F93AF93D9
:10479000BF93EF93FF93E0910202F091030219950A
:1047A000FF91EF91BF91AF919F918F917F916F9109
:1047B0005F914F913F912F910F900BBE0F900FBEC5
:1047C0000F901F9018951F920F920FB60F92112401
:1047D0000BB60F922F933F934F935F936F937F93FB
:1047E0008F939F93AF93BF93EF93FF93E09100025A
:1047F000F09101021995FF91EF91BF91AF919F91B7
:104800008F917F916F915F914F913F912F910F9079
:104810000BBE0F900FBE0F901F9018951F920F9216
:104820000FB60F9211240BB60F922F933F934F9315
:104830005F936F937F938F939F93AF93BF93EF9308
:10484000FF93E0910A02F0910B021995FF91EF910D
:10485000BF91AF919F918F917F916F915F914F9198
:104860003F912F910F900BBE0F900FBE0F901F9096
:1048700018951F920F920FB60F9211240BB60F923C
:104880002F933F934F935F936F937F938F939F9358
:10489000AF93BF93EF93FF93E0910802F091090269
:1048A0001995FF91EF91BF91AF919F918F917F915A
:1048B0006F915F914F913F912F910F900BBE0F9091
:1048C0000FBE0F901F9018951F920F920FB60F9268
:1048D00011240BB60F922F933F934F935F936F93D7
:1048E0007F938F939F93AF93BF93EF93FF93E09149
:1048F0000602F09107021995FF91EF91BF91AF91D8
:104900009F918F917F916F915F914F913F912F91E7
:104910000F900BBE0F900FBE0F901F9018951F9217
:104920000F920FB60F9211240BB60F922F933F9355
:104930004F935F936F937F938F939F93AF93BF93A7
:10494000EF93FF93E0910402F09105021995FF9116
:10495000EF91BF91AF919F918F917F916F915F91F7
:104960004F913F912F910F900BBE0F900FBE0F9064
:104970001F9018951F920F920FB60F9211240BB62D
:104980000F922F933F934F935F936F937F938F93E8
:104990009F93AF93BF93EF93FF938091B900887F6C
:1049A000803609F44DC008F040C0883209F4A9C02F
:1049B00028F5803109F49DC0C8F4882309F4FBC0B0
:1049C000883009F496C0FF91EF91BF91AF919F910C
:1049D0008F917F916F915F914F913F912F910F90A8
:1049E0000BBE0F900FBE0F901F901895883109F4E1
:1049F00088C0803241F780936F0414C0803409F47A
:104A00009DC040F48033B9F38833E9F680936F0496
:104A100085ECB0C0803509F485C0883509F496C0AE
:104A2000883489F60E943721CECF883909F48CC0AA
:104A300038F5883729F050F4883611F0803719F6A8
:104A400083E0809371041092F50357C0883809F40D
:104A50007BC0803919F0803809F0B5CF8091F5031B
:104A6000803208F071C0E091F50381E08E0F8093F1
:104A7000F5038091BB00F0E0EB52FC4F80833DC01A
:104A8000803B39F0E0F4803A09F479C0883A09F0C3
:104A90009ACF84E0809371041092D4031092D303D0
:104AA000E091FF03F091000419958091D3038111E7
:104AB0000FC081E08093D3031092B30309C0803C00
:104AC00009F4A6CF883C09F4A3CF883B09F07BCF3B
:104AD000E091D40381E08E0F8093D403F0E0ED5495
:104AE000FC4F80818093BB009091D4038091D303CD
:104AF00029C080914C048093BB0085EC8093BC005E
:104B000062CF90916E0480916D04981758F5E091F2
:104B10006E0481E08E0F80936E04F0E0E35BFB4F48
:104B20008081E9CFE0916E0481E08E0F80936E0466
:104B30008091BB00F0E0E35BFB4F808390916E04BB
:104B400080916D049817C8F285E8D8CFE0916E0483
:104B500081E08E0F80936E048091BB00F0E0E35BF8
:104B6000FB4F80838091700481115CCF81E0809342
:104B70004B0484EA8093BC001092710424CF85EC2E
:104B80008093BC00109271048091F503803230F460
:104B9000E091F503F0E0EB52FC4F10826091F503D9
:104BA00070E0E0910104F091020485ED93E0199525
:104BB0001092F50308CF10926F0434CFCF93DF9398
:104BC000EBE9F4E01382128288EE93E0A0E0B0E01B
:104BD00084839583A683B78324E432E031832083E2
:104BE00045ED50E05587448744ED50E057874687B0
:104BF00040ED50E0518B408B41ED50E0538B428BA8
:104C000042ED50E0558B448B46ED50E0578B468B80
:104C1000118E128E138E148EE8E3F5E01382128249
:104C200084839583A683B7833183208325EC30E08A
:104C30003587248724EC30E03787268720EC30E066
:104C4000318B208B21EC30E0338B228B22EC30E057
:104C5000358B248B26EC30E0378B268B118E128E11
:104C6000138E148EE5EDF5E0138212828483958312
:104C7000A683B78386E592E091838083C7E2D6E07E
:104C800080E090E0A5E2B4E488839983AA83BB83A3
:104C900080E090E0A0E0B0E48C839D83AE83BF838E
:104CA00085E0888B87E0898B8AE08A8B88E08B8B14
:104CB00084E08C8B86E08D8B8BE08E8B89E08F8BF4
:104CC000109281061092820610928306109284063A
:104CD000109285061092860610928706109288061A
:104CE0001092890610928A0610928B0610928C06FA
:104CF00081E0898FEBE7F3E0E491E887F0E0EE0FE5
:104D0000FF1FE45AFC4F859194919BA38AA3EBE18A
:104D1000F3E0E491EAABE5EDF2E0E491EA8FEAE753
:104D2000F3E0E491EC87F0E0EE0FFF1FE45AFC4F54
:104D3000859194919DA38CA3EAE1F3E0E491EBAB20
:104D4000E4EDF2E0E491EB8FEDE7F3E0E491E98745
:104D5000F0E0EE0FFF1FE45AFC4F859194919FA362
:104D60008EA3EDE1F3E0E491ECABE7EDF2E0E4914A
:104D7000EC8FECE7F3E0E491ED87F0E0EE0FFF1F3E
:104D8000E45AFC4F8591949199A788A7ECE1F3E050
:104D9000E491EDABE6EDF2E0E491ED8FE0E8F3E0D5
:104DA000E491EA87F0E0EE0FFF1FE45AFC4F859193
:104DB00094919BA78AA7E0E2F3E0E491EEABEAEDE1
:104DC000F2E0E491EE8FE1E8F3E0E491EE87F0E0C9
:104DD000EE0FFF1FE45AFC4F859194919DA78CA77D
:104DE000E1E2F3E0E491EFABEBEDF2E0E491EF8F81
:104DF000EEE7F3E0E491EB87F0E0EE0FFF1FE45AFB
:104E0000FC4F859194919FA78EA7EEE1F3E0E4918A
:104E1000E8AFE8EDF2E0E491E8A3EFE7F3E0E49136
:104E2000EF87F0E0EE0FFF1FE45AFC4F859194915D
:104E300099AB88ABEFE1F3E0E491E9AFE9EDF2E0A3
:104E4000E491E9A361E085E00E94020461E08C89BD
:104E50000E94020461E089890E94020461E08D8958
:104E60000E94020461E08A890E94020461E08E8946
:104E70000E94020461E08B890E94020461E08F8934
:104E80000E94020460E082E00E94020460E083E08D
:104E90000E94020460E083E10E94020460E082E17B
:104EA0000E94020460E086E30E94020460E087E35F
:104EB0000E94020460E088E30E94020460E089E34B
:104EC0000E940204A0E0B2E08CE399E11B969C935F
:104ED0008E931A97C9E6D0E088818F7380688883A3
:104EE000EB9AEFEAF3E0E491F0E0EE0FFF1FEA54F3
:104EF000FD4F859194919093EC058093EB05EFE441
:104F0000F3E0E491E093EA0583E199E119969C933B
:104F10008E93189788818F7C80628883EA9AEEEA64
:104F2000F3E0E491F0E0EE0FFF1FEA54FD4F8591AE
:104F300094919093E9058093E805EEE4F3E0E49121
:104F4000E093E7058AEE98E111969C938E93CAE66A
:104F5000D0E088818C7F82608883EC9AECEAF3E071
:104F6000E491F0E0EE0FFF1FEA54FD4F859194911C
:104F70009093E6058093E505ECE4F3E0E491E0939B
:104F8000E40581EC98E113969C938E9312978881A7
:104F9000837F88608883ED9AEDEAF3E0E491F0E0A6
:104FA000EE0FFF1FEA54FD4F859194919093E30516
:104FB0008093E205EDE4F3E0E491E093E105EDEEAA
:104FC000F5E088E692E091838083178E168E11A219
:104FD00010A213A212A215A214A2DF91CF910895DC
:104FE000CF93DF93CDB7DEB7CA57D1090FB6F89488
:104FF000DEBF0FBECDBF789484B5826084BD84B51A
:10500000816084BD85B5826085BD85B5816085BDC3
:1050100080916E00816080936E001092810080917B
:105020008100826080938100809181008160809303
:105030008100809180008160809380008091B10028
:1050400084608093B1008091B00081608093B00053
:1050500080919100826080939100809191008160A5
:105060008093910080919000816080939000809166
:10507000A10082608093A1008091A1008160809353
:10508000A1008091A00081608093A0008091210107
:1050900082608093210180912101816080932101B0
:1050A0008091200181608093200180917A0084604A
:1050B00080937A0080917A00826080937A00809158
:1050C0007A00816080937A0080917A008068809372
:1050D0007A001092C10088E395E00E9413028BE9E8
:1050E00094E00E9413021092400660ED77E080E0A9
:1050F00090E00E943A0580910B0690910C06009773
:1051000011F00E94F73086E090E00E945B30FC01D5
:1051100088E6808385ED95E092838183138280E227
:1051200090E095838483F0930C06E0930B0615E0E2
:10513000EAE3AE2EE2E0BE2EFBE38F2EF2E09F2EDE
:10514000FF24F394C0900B06D0900C061092040438
:10515000109203041092780410929A040E94A00501
:10516000B0920004A092FF03909202048092010486
:10517000D6011396FC92C6010E94BE088111A6C3F7
:105180006AE070E080E090E00E943A051150D1F6AC
:105190008BE892E00E94741D6AE070E080E090E08D
:1051A0000E943A05F9CF84EC92E00E94741D06C477
:1051B00089EC92E0FACF8EEC92E0F7CF83ED92E0AB
:1051C000F4CF8DEE92E00E94741D49C48AEF92E004
:1051D000FACF87E093E0F7CF85E193E0F4CF8DE35A
:1051E00093E00E94741D8CE692E00E94741DA80159
:1051F000BE016B5D7F4FCE01875B9F4F0E94821D7A
:10520000FE01EF5BFF4F80819181A281B38180938A
:10521000230490932404A0932504B09326041F0133
:10522000A801BE016B5D7F4FCE01875B9F4F0E943F
:10523000821D0E946C05C0902704D0902804E09045
:105240002904F0902A046C197D098E099F090E9497
:10525000C92DEB966CAF7DAF8EAF9FAFEB972091D2
:105260002304309124044091250450912604F10137
:1052700060817181828193810E94022F6B017C0188
:1052800080910D0481110FC08DEC9CECACE4BFE368
:105290008093090490930A04A0930B04B0930C0428
:1052A00091E090930D044090090450900A0460909E
:1052B0000B0470900C042DEC3CEC4CE45FE3C30158
:1052C000B2010E94032F9B01AC01C301B2010E94F5
:1052D0006F2FE7966CAF7DAF8EAF9FAFE797809053
:1052E000050490900604A0900704B0900804A5015E
:1052F0009401C701B6010E94022FE7962CAD3DAD87
:105300004EAD5FADE7970E942A2EA50194010E9441
:10531000032F6B017C01AC019B01C501B4010E940C
:10532000022F9F772DEC3CEC4CEC5DE30E942A2E83
:105330004B015C01E7962CAD3DAD4EAD5FADE797FF
:1053400060E070E080E89FE30E94022FA3019201D9
:105350000E942A2E9B01AC01C501B4010E94032FBB
:105360006093090470930A0480930B0490930C04D7
:10537000C0920504D0920604E0920704F09208045B
:10538000A7019601EB966CAD7DAD8EAD9FADEB9711
:105390000E942A2E2BE13FE245E652E40E942A2E8B
:1053A00020E030E04AE754E40E946F2F20911F0470
:1053B0003091200440912104509122040E94032F37
:1053C0006B017C014B015C01C0921F04D092200450
:1053D000E0922104F0922204AC019B010E941C3057
:1053E000882309F4D0C088E693E00E94231D8AE652
:1053F00092E00E94231D5E01ADE6AA0EB11CD12CE5
:10540000C12C75010E946C056093A3047093A404E1
:105410008093A5049093A6048BE994E00E947802FF
:1054200097FF70C30E946C054090A3045090A404A1
:105430006090A5047090A6046419750986099709FF
:1054400040909F045090A0046090A1047090A2042A
:105450006415750586059705F8F2CD2891F0F701DA
:1054600062817381848195810E94E12F70931E0473
:1054700060931D04D7018D919C9190931C0480939F
:105480001B0480903B0490903C04A0903D04B0909D
:105490003E044AE0C501B401B7FE0DC06DE288E3E9
:1054A00095E00E94DC0266277727CB01681979090D
:1054B0008A099B094AE00E94301D8AE692E00E9418
:1054C000231D80911B0490911C042091190430919C
:1054D0001A048217930789F190931A048093190490
:1054E00010923B0410923C0410923D0410923E0432
:1054F00010923F0410924004109241041092420412
:1055000010924304109244041092450410924604F1
:1055100010924704109248041092490410924A04D1
:10552000F101408151816281738140931504509350
:10553000160460931704709318048230910509F4DF
:1055400062C10CF0B4C0019709F4DFC070E060E004
:1055500090E080E00E94D20A8CE893E00E94741DE3
:1055600021C184E493E03DCE8BE493E03ACE81E523
:1055700093E037CE87E593E034CE8DE593E031CEEE
:1055800083E693E02ECE26013701E89477F82FEFDB
:105590003FEF4FE75FE7C301B2010E941C3081116A
:1055A0000DC02FEF3FEF4FE75FE7C301B2010E944D
:1055B000C42D18161CF48CE693E017CF2FEF3FEFA5
:1055C0004FE75FE4C701B6010E94173018161CF4BC
:1055D00080E793E00ACF2FEF3FEF4FE75FECC70183
:1055E000B6010E94C42D87FDF3CF20E030E0A90171
:1055F000C701B6010E94C42D87FF0BC06DE288E38E
:1056000095E00E94DC0246015701B7FAB094B7F862
:10561000B0942AE037ED43EA5BE3C501B4010E9490
:10562000032F4B015C010E94E82F6B017C010E945B
:10563000C92D9B01AC01C501B4010E94022F4B0191
:105640005C014AE0C701B6010E94301D6EE288E3AA
:1056500095E00E94DC0220E030E040E251E4C50128
:10566000B4010E942A2E4B015C010E94E82F6B01BD
:10567000F12CE12C4AE0C701B6010E94301DC701A0
:10568000B6010E94C92D9B01AC01C501B4010E9465
:10569000022F20E030E040E251E40E942A2E0E94D6
:1056A000E82F90E080E04AE00E94301DA0CE8330D9
:1056B000910509F4E9C0049709F048CF64ED7EEF45
:1056C00084ED9EEF0E94D20A87E893E00E94741D49
:1056D00080913B0490913C04A0913D04B0913E0424
:1056E000181619061A061B060CF0E0C080913B0440
:1056F00090913C04A0913D04B0913E04883E9340BB
:10570000A105B1050CF44EC043C060911D04709119
:105710001E04072E000C880B990B0E94CB2D4B0109
:105720005C01AC019B0160E070E086E993E40E94BB
:10573000022F0E94E12F2B0120E030E046E953E4E4
:10574000C501B4010E94032F0E94E12FCB01B201D9
:105750000E94D20A84E793E00E94741D80913B046A
:1057600090913C04A0913D04B0913E041816190696
:105770001A061B06C4F580913B0490913C04A0914D
:105780003D04B0913E04883B9B40A105B10554F017
:1057900010921C0410921B0470E060E090E080E026
:1057A0000E94D20A80911B0490911C04D7018D9312
:1057B0009C9346E050E0B7018BE994E00E943C02E4
:1057C0000E946C0560932704709328048093290439
:1057D00090932A046AE070E080E090E00E943A052D
:1057E0000E9449031DCD80913B0490913C04A091FF
:1057F0003D04B0913E04B095A095909581959F4F42
:10580000AF4FBF4FC0CF64ED7EEF8CE291E00E94BE
:10581000D20A8CE793E00E94741D80901F04909040
:105820002004A0902104B090220420E030E0A901DF
:10583000C501B4010E941730181624F0B7FAB094CD
:10584000B7F8B09440901504509016046090170477
:105850007090180420E030E0A901C301B2010E9459
:1058600017301816D4F420E030E044EB52E4C301C2
:10587000B2010E94032F9B01AC01C501B4010E943B
:10588000173087FD8FCF84CF6CE271E084ED9EEFFF
:105890000E94D20A82E893E0BECFA301920160E0A9
:1058A00070E084EB92E40E94022FE5CF80913B04EC
:1058B00090913C04A0913D04B0913E04B095A09518
:1058C000909581959F4FAF4FBF4F18CF80910B069A
:1058D00090910C06188A198A1A8A1B8A9A838983DE
:1058E0001C821B82FA8685E790E098878F831B864F
:1058F000F9868E010F5F1F4FC8010E94EC1A6836AF
:1059000071058105910509F043CC40E050E0BA01F2
:105910008DEE95E00E94AE1F882309F439CC80916A
:105920000B0690910C06188A198A1A8A1B8A9A8388
:1059300089831C821B82FA865CE1A52EB12CB88675
:10594000AF821B86F9861EA30DA362E0D62EDFA2CE
:1059500073E0E72EE8A642E050E060E070E0CE01A0
:1059600085960E941D1B87EA92E00E94231D80916C
:105970000B0690910C06188A198A1A8A1B8A9A8338
:1059800089831C821B82FA86B886AF821B86F986C1
:105990001EA30DA3DFA2E8A6CE0185960E94741B6C
:1059A0006130710509F404CC08F4FDCB6230710557
:1059B00009F401CC6330710509F400CC80910B0629
:1059C00090910C06188A198A1A8A1B8A9A838983ED
:1059D0001C821B82FF24F394FA862BE1A22EB12CA9
:1059E000B886AF821B86F9861EA30DA332E0D32EA4
:1059F000DFA243E0E42EE8A641E050E060E070E082
:105A0000CE0185960E941D1B89ED92E00E94231D08
:105A100080910B0690910C06188A198A1A8A1B8AA3
:105A20009A8389831C821B82FA86B886AF821B8682
:105A3000F9861EA30DA3DFA2E8A6CE0185960E94DB
:105A4000741B6130710509F4C1CB08F4BACB623024
:105A5000710509F4BECB6330710509F4BDCB8091AB
:105A60000B0690910C06188A198A1A8A1B8A9A8347
:105A700089831C821B82FF24F394FA868AE1C82E54
:105A8000D12CD886CF821B86F9861EA30DA393E066
:105A9000E92EEFA218A644E050E060E070E0CE01ED
:105AA00085960E941D1B83E293E00E94231D809136
:105AB0000B0690910C06188A198A1A8A1B8A9A83F7
:105AC00089831C821B82FA86D886CF821B86F98640
:105AD0001EA30DA3EFA218A6CE0185960E94741BEB
