:100000000C941B010C944C010C944C010C944C016D
:100010000C944C010C944C010C944C010C944C012C
:100020000C944C010C944C010C944C010C944C011C
:100030000C944C010C944C010C944C010C944C010C
:100040000C944C010C944C010C944C010C944C01FC
:100050000C944C010C944C010C944C010C947105C3
:100060000C944C010C943B050C9411050C944C0120
:100070000C944C010C944C010C944C010C944C01CC
:100080000C944C010C944C010C944C010C944C01BC
:100090000C944C010C944C010C944C010C94BB0539
:1000A0000C944C010C944C010C944C010C944C019C
:1000B0000C944C010C944C010C944C010C944C018C
:1000C0000C944C010C944C010C944C010C94DB04EA
:1000D0000C94B1040C944C010C944C010C944C0104
:1000E0000C944C010C94F6020C9475010C94C5010F
:1000F0000C94DB060C9423030C9419030C94050355
:100100000C94FA020C9431030C940B030C94270307
:100110000C9435030C94B1010C941D030C942B0327
:100120000C94E4020C9402030C9415020C94DF026C
:100130000C940F030C94D3010C94FE020C94A201B6
:100140000C9415030C946202000022002500280084
:100150002B002E00310034000201000005010801CF
:100160000B0105050505070508080808020202023B
:100170000A0A080804040404010101010101010143
:100180000303030303030303040707070C0C0C0C0E
:100190000C0C0C0C020202020606060606060606F7
:1001A0000B0B0B0B0B0B0B0B010210202008081084
:1001B00020401020408002010201080402010102D7
:1001C00004081020408080402010080402018004B0
:1001D000020180402010080402010804020101020B
:1001E0000408102040800102040810204080000014
:1001F0000A0B02090C0D0E080703040100000000A1
:1002000000000000000000000000000000000000EE
:1002100000000000000000000000121110000000AB
:1002200000000000000000000000000000000000CE
:1002300000000000DB0611241FBECFEFD1E2DEBFBD
:10024000CDBF00E00CBF23E0A6E1B2E001C01D92EB
:10025000AC3CB207E1F712E0A0E0B2E0ECE0F1E183
:1002600000E00BBF02C007900D92A631B107D9F78D
:1002700011E0CBE1D1E000E006C021970109802F19
:10028000FE010E947C08CA31D10780E00807A9F767
:100290000E942E070C9484080C940000FC01A08995
:1002A000B18982E08C93A485B5851C92A685B7851B
:1002B00080E18C93108EA489B58986E08C93A28905
:1002C000B3898C9180618C93A289B3898C91886069
:1002D0008C93A289B3898C9180688C930288F3896E
:1002E000E02D80818F7D80830895AF92BF92CF9261
:1002F000DF92EF92FF920F931F93CF93DF936C01E6
:100300007B018B01040F151FEB015E01AE18BF08C6
:10031000C017D10759F06991D601ED91FC91019078
:10032000F081E02DC6011995892B79F7C501DF9180
:10033000CF911F910F91FF90EF90DF90CF90BF90E2
:10034000AF900895FC01538D448D252F30E0842F0C
:1003500090E0821B930B541710F0CF9608950197ED
:100360000895FC01918D828D981761F0A28DAE0FDA
:10037000BF2FB11D5D968C91928D9F5F9F73928F61
:1003800090E008958FEF9FEF0895FC01918D828D8D
:10039000981731F0828DE80FF11D858D90E008955A
:1003A0008FEF9FEF0895FC01918D228D892F90E0B2
:1003B000805C9F4F821B91098F739927089582E972
:1003C00092E00E94D30121E0892B09F420E0822FE2
:1003D00008958FE293E00E94D30121E0892B09F474
:1003E00020E0822F0895FC01A48DA80FB92FB11D24
:1003F000A35ABF4F2C91848D90E001968F7399275B
:10040000848FA689B7892C93A089B1898C91837038
:1004100080648C93938D848D981306C00288F38931
:10042000E02D80818F7D80830895EF92FF920F935E
:100430001F93CF93DF93EC0181E0888F9B8D8C8D90
:1004400098131AC0E889F989808185FF15C09FB784
:10045000F894EE89FF896083E889F9898081837047
:10046000806480839FBF81E090E0DF91CF911F91F6
:100470000F91FF90EF900895F62E0B8D10E00F5F17
:100480001F4F0F731127E02E8C8D8E110CC00FB6ED
:1004900007FCFACFE889F989808185FFF5CFCE0185
:1004A0000E94F301F1CFEB8DEC0FFD2FF11DE35A0C
:1004B000FF4FF0829FB7F8940B8FEA89FB89808108
:1004C0008062CFCFCF93DF93EC01888D8823B9F082
:1004D000AA89BB89E889F9898C9185FD03C080814F
:1004E00086FD0DC00FB607FCF7CF8C9185FFF2CFCC
:1004F000808185FFEDCFCE010E94F301E9CFDF912E
:10050000CF91089580E090E0892B29F00E94E901C5
:1005100081110E94000080E090E0892B49F080E08A
:1005200090E0892B29F00E94000081110E940000B8
:1005300080E090E0892B29F00E94DF0181110E9468
:10054000000080E090E0892B49F080E090E0892B6A
:1005500029F00E94000081110C9400000895282FBA
:1005600030E0F901E251FE4F9491F901E855FE4F58
:1005700044912E593E4FF9012491222309F435C0AC
:10058000992311F191509231F8F4E92FF0E0882786
:10059000E353FD4F8F4F0C947C08FE020203DF02F1
:1005A000F602FA02E40205030B030F031503190315
:1005B0001D0323032703E4022B033103350380913A
:1005C00080008F7780938000E22FF0E0EE0FFF1F16
:1005D000E85BFE4FA591B4918FB7F894EC9161114F
:1005E00048C040954E234C938FBF08958091800062
:1005F0008F7DE8CF80918000877FE4CF84B58F77AF
:1006000084BDE2CF84B58F7DFBCF8091B0008F7722
:100610008093B000D9CF8091B0008F7DF9CF8091C9
:1006200090008F7780939000CFCF809190008F7D46
:10063000F9CF80919000877FF5CF8091A0008F77D0
:100640008093A000C1CF8091A0008F7DF9CF8091D1
:10065000A000877FF5CF809120018F7780932001C4
:10066000B3CF809120018F7DF9CF80912001877FCA
:10067000F5CF4E2BB8CF3FB7F89480918802909178
:100680008902A0918A02B0918B0226B5A89B05C071
:100690002F3F19F00196A11DB11D3FBFBA2FA92F01
:1006A000982F8827BC01CD01620F711D811D911DFE
:1006B00042E0660F771F881F991F4A95D1F708956A
:1006C0008F929F92AF92BF92CF92DF92EF92FF9262
:1006D0004B015C010E943B036B017C010E943B03C8
:1006E0006C197D098E099F09683E7340810591054B
:1006F000A8F321E0821A9108A108B10888EEC80E7B
:1007000083E0D81EE11CF11C81149104A104B10402
:1007100029F7FF90EF90DF90CF90BF90AF909F9020
:100720008F90089520913D02260F3327331F2132E9
:100730003105ECF420916102FC0190E080E024306E
:1007400069F082E00895A0913D022191AC01435EE1
:100750005D4FA40FB52FB11D2C930196861798F30A
:1007600080913D02680F60933D0280E0089581E032
:10077000089508958FEF9FEF08958FEF9FEF0895ED
:100780008091160290E09195819591090895CF93FB
:10079000DF93CB01EA01642F0E949203CE01DF9127
:1007A000CF910895CF93DF931F92CDB7DEB76983C2
:1007B00061E0CE0101960E94920381E090E00F90EB
:1007C000DF91CF91089590E080E008958F929F92FD
:1007D000AF92BF920F931F93CF93DF93CDB7DEB746
:1007E000A1970FB6F894DEBF0FBECDBF19A242305D
:1007F00008F44AE08E010F5D1F4F842E912CB12C1E
:10080000A12CA50194010E945A08E62FB901CA0142
:10081000EA3044F5E05DD801EE938D01232B242BC3
:10082000252B79F790E080E0109769F0FD010190A9
:100830000020E9F73197AF014A1B5B0BBD018FE246
:1008400093E00E947501A1960FB6F894DEBF0FBE2B
:10085000CDBFDF91CF911F910F91BF90AF909F902F
:100860008F900895E95CD7CF42E050E062E172E0FA
:100870008FE293E00C9475011F93CF93DF9385ED86
:100880008093BC008091190290911A02A0911B02E2
:10089000B0911C020796A11DB11D23E0B695A79546
:1008A000979587952A95D1F72091BC0024FD03C028
:1008B0001092610252C04091190250911A02609147
:1008C0001B0270911C02452B462B472B69F30097A6
:1008D000A105B10541F02AE22A95F1F700C0019780
:1008E000A109B109E1CF80911802C1E0C0931702BC
:1008F000882399F1D091B8001091BA008091BC0082
:100900008A7B8093BC0060E084E10E94AF0260E0DB
:1009100085E10E94AF0210926102C09363021092BF
:10092000620261E084E10E94AF0261E085E10E9421
:10093000AF028091B9008E7F8093B9008091B90099
:100940008D7F8093B90088E48093B80085E480931C
:10095000BC001093BA00D093B800DF91CF911F91E3
:1009600008951F920F920FB60F9211240BB60F929B
:100970002F933F934F935F936F937F938F939F93A7
:10098000AF93BF93EF93FF9382E992E00E94F3014C
:10099000FF91EF91BF91AF919F918F917F916F9157
:1009A0005F914F913F912F910F900BBE0F900FBE13
:1009B0000F901F9018951F920F920FB60F9211244F
:1009C0000BB60F922F938F939F93EF93FF93E0912A
:1009D000A202F091A3028081E091A802F091A90205
:1009E00082FD1DC090818091AB028F5F8F7320913B
:1009F000AC02821741F0E091AB02F0E0EE56FD4F01
:100A0000958F8093AB02FF91EF919F918F912F91E2
:100A10000F900BBE0F900FBE0F901F901895808106
:100A2000F2CF1F920F920FB60F9211240BB60F92B6
:100A30002F933F934F935F936F937F938F939F93E6
:100A4000AF93BF93EF93FF938FE293E00E94F30184
:100A5000FF91EF91BF91AF919F918F917F916F9196
:100A60005F914F913F912F910F900BBE0F900FBE52
:100A70000F901F9018951F920F920FB60F9211248E
:100A80000BB60F922F938F939F93EF93FF93E09169
:100A90003F03F09140038081E0914503F0914603CC
:100AA00082FD1DC09081809148038F5F8F732091DC
:100AB0004903821741F0E0914803F0E0E15DFC4F0B
:100AC000958F80934803FF91EF919F918F912F9184
:100AD0000F900BBE0F900FBE0F901F901895808146
:100AE000F2CF1F920F920FB60F9211242F933F93C4
:100AF0008F939F93AF93BF9380918C0290918D02BF
:100B0000A0918E02B0918F023091870223E0230FD3
:100B10002D3758F50196A11DB11D209387028093B2
:100B20008C0290938D02A0938E02B0938F028091DD
:100B3000880290918902A0918A02B0918B0201965D
:100B4000A11DB11D8093880290938902A0938A020F
:100B5000B0938B02BF91AF919F918F913F912F9155
:100B60000F900FBE0F901F90189526E8230F029646
:100B7000A11DB11DD2CF1F920F920FB60F9211245B
:100B80000BB60F922F933F934F935F936F937F9387
:100B90008F939F93AF93BF93EF93FF938091B9008F
:100BA000887F803609F44DC008F040C0883209F4CF
:100BB000A7C028F5803109F49BC0C8F4882309F444
:100BC000F7C0883009F494C0FF91EF91BF91AF91C5
:100BD0009F918F917F916F915F914F913F912F9155
:100BE0000F900BBE0F900FBE0F901F90189588317D
:100BF00009F486C0803241F78093600214C08034CB
:100C000009F49BC040F48033B9F38833E9F680934C
:100C1000600285ECAEC0803509F483C0883509F4E4
:100C200094C0883489F60E943C04CECF883909F4F8
:100C30008AC038F5883729F050F4883611F08037AB
:100C400019F683E08093610210925F0255C08838E4
:100C500009F479C0803919F0803809F0B5CF809156
:100C60005F02803208F06FC0E0915F0281E08E0F7A
:100C700080935F028091BB00F0E0E15CFD4F8083D8
:100C80003BC0803B39F0D0F4803A09F477C0883A11
:100C900009F09ACF84E08093610210923E02109294
:100CA0003D02F0E0E0E0199580913D0281110FC016
:100CB00081E080933D0210921D0209C0803C09F43E
:100CC000A8CF883C09F4A5CF883B09F07DCFE091FF
:100CD0003E0281E08E0F80933E02F0E0E35EFD4F26
:100CE00080818093BB0090913E0280913D0229C09B
:100CF000809186028093BB0085EC8093BC0064CF1A
:100D00009091850280918402981758F5E0918502B0
:100D100081E08E0F80938502F0E0EC59FD4F8081D9
:100D2000E9CFE091850281E08E0F8093850280916A
:100D3000BB00F0E0EC59FD4F8083909185028091DB
:100D400084029817C8F285E8D8CFE091850281E047
:100D50008E0F809385028091BB00F0E0EC59FD4F2F
:100D600080838091630281115ECF81E08093620273
:100D700084EA8093BC001092610226CF85EC8093B8
:100D8000BC001092610280915F02803230F4E091E9
:100D90005F02F0E0E15CFD4F108260915F0270E065
:100DA0008FE392E0F0E0E0E0199510925F020CCF43
:100DB0001092600238CFE2E9F2E01382128248EE2C
:100DC00053E060E070E0448355836683778384E07A
:100DD00092E09183808325ED30E03587248724EDF0
:100DE00030E03787268720ED30E0318B208B21EDF6
:100DF00030E0338B228B22ED30E0358B248B26EDD7
:100E000030E0378B268B118E128E138E148EEFE20C
:100E1000F3E0138212824483558366837783918340
:100E2000808385EC90E09587848784EC90E09787B9
:100E3000868780EC90E0918B808B81EC90E0938BA7
:100E4000828B82EC90E0958B848B86EC90E0978B84
:100E5000868B118E128E138E148E0895CF93DF938E
:100E600000D000D0CDB7DEB7789484B5826084BD61
:100E700084B5816084BD85B5826085BD85B581609E
:100E800085BD80916E00816080936E00109281001C
:100E900080918100826080938100809181008160D7
:100EA0008093810080918000816080938000809198
:100EB000B10084608093B1008091B0008160809324
:100EC000B0008091910082608093910080919100A8
:100ED0008160809391008091900081608093900068
:100EE0008091A10082608093A1008091A100816027
:100EF0008093A1008091A00081608093A0008091E8
:100F00002101826080932101809121018160809381
:100F100021018091200181608093200180917A00DD
:100F2000846080937A0080917A00826080937A0056
:100F300080917A00816080937A0080917A00806845
:100F400080937A001092C1008FE293E00E944E01DC
:100F500082E992E00E944E0160ED77E080E090E04F
:100F60000E946003CE0101966C01F12CE12C182F38
:100F70000D2D2FB7F89480918C0290918D02A09145
:100F80008E02B0918F022FBF80939A0290939B02A2
:100F9000A0939C02B0939D0282E992E00E94B1016D
:100FA00097FF7CC02FB7F89480918C0290918D02AE
:100FB000A0918E02B0918F022FBF40919A02509162
:100FC0009B0260919C0270919D02841B950BA60B65
:100FD000B70B4091960250919702609198027091E0
:100FE000990284179507A607B707B0F2EF2839F0E2
:100FF00089819A8101979093910280939002C09089
:101000009002D09091020D2C000CEE08FF084AE0EF
:10101000C701B601F7FE0DC06DE28FE293E00E94BA
:10102000150266277727CB016C197D098E099F0968
:101030004AE00E94E6030E943404C0909002D090DF
:101040009102DA82C9820D2C000CEE08FF084AE0FA
:10105000C701B601F7FE0DC06DE28FE293E00E947A
:10106000150266277727CB016C197D098E099F0928
:101070004AE00E94E6030E94340446E050E0612FFB
:10108000702F82E992E00E9475016AE070E080E0D2
:1010900090E00E9460030E94820264CFF601819377
:1010A0006F01FFEFEF1AFF0A86E0E816F10409F07E
:1010B00060CF9ECFA1E21A2EAA1BBB1BFD010DC063
:1010C000AA1FBB1FEE1FFF1FA217B307E407F507F8
:1010D00020F0A21BB30BE40BF50B661F771F881FD4
:1010E000991F1A9469F760957095809590959B016A
:1010F000AC01BD01CF010895EE0FFF1F881F8BBF0C
:0C1100000790F691E02D1994F894FFCFB1
:10110C000000000015027501A2016202D301B101B9
:06111C00C5010D0A0000F0
:00000001FF
