:100000000C941B010C944C010C944C010C944C016D
:100010000C944C010C944C010C944C010C944C012C
:100020000C944C010C944C010C944C010C944C011C
:100030000C944C010C944C010C944C010C944C010C
:100040000C944C010C944C010C944C010C944C01FC
:100050000C944C010C944C010C944C010C94C30472
:100060000C944C010C948D040C9463040C944C017E
:100070000C944C010C944C010C944C010C944C01CC
:100080000C944C010C944C010C944C010C944C01BC
:100090000C944C010C944C010C944C010C944C01AC
:1000A0000C944C010C944C010C944C010C944C019C
:1000B0000C944C010C944C010C944C010C944C018C
:1000C0000C944C010C944C010C944C010C944C017C
:1000D0000C944C010C944C010C942D040C940304CE
:1000E0000C944C010C94F4010C94D8010C94DC0198
:1000F0000C94A5010C94B9010C94E6010C9428020F
:100100000C94CE010C94C4010C9437020C94F001B1
:100110000C94EA010C944B020C94A0010C94CA01BB
:100120000C949B020C94BD010C94C1010C94D4015D
:100130000C94E8020C94FB010C9459020C94E2011B
:100140000C94B5010C940D0500002000230026003E
:1001500029002C002F0032000001000003010601DD
:10016000090105050505070508080808020202023D
:100170000A0A080804040404010101010101010143
:100180000303030303030303040707070C0C0C0C0E
:100190000C0C0C0C020202020606060606060606F7
:1001A0000B0B0B0B0B0B0B0B010210202008081084
:1001B00020401020408002010201080402010102D7
:1001C00004081020408080402010080402018004B0
:1001D000020180402010080402010804020101020B
:1001E0000408102040800102040810204080000014
:1001F0000A0B02090C0D0E080703040100000000A1
:1002000000000000000000000000000000000000EE
:1002100000000000000000000000121110000000AB
:1002200000000000000000000000000000000000CE
:10023000000000000D0511241FBECFEFD1E2DEBF8C
:10024000CDBF00E00CBF23E0A6E1B2E001C01D92EB
:10025000AB35B207E1F712E0A0E0B2E0EAE7FDE07B
:1002600000E00BBF02C007900D92A631B107D9F78D
:1002700011E0CBE1D1E000E006C021970109802F19
:10028000FE010E94B306CA31D10780E00807A9F732
:100290000E9460050C94BB060C940000FC01A08930
:1002A000B18982E08C93A485B5851C92A685B7851B
:1002B00080E18C93108EA489B58986E08C93A28905
:1002C000B3898C9180618C93A289B3898C91886069
:1002D0008C93A289B3898C9180688C930288F3896E
:1002E000E02D80818F7D80830895EDE1F2E084919F
:1002F000E7EDF1E02491E1E9F1E09491992309F42B
:1003000077C0882311F181508231F8F4E82FF0E0B2
:100310008827E257FE4F8F4F0C94B306BD01C101F1
:10032000A001B501B901A501C401CA01CE01D401E2
:10033000D801DC01E201E601A501EA01F001F401C6
:10034000809180008F7780938000E92FF0E0EE0F9E
:10035000FF1FE85BFE4FA591B491EC912E2381E045
:1003600090E009F047C080E00895809180008F7D83
:10037000EACF80918000877FE6CF84B58F7784BDF8
:10038000E4CF84B58F7DFBCF8091B0008F778093D1
:10039000B000DBCF8091B0008F7DF9CF80919000CD
:1003A0008F7780939000D1CF809190008F7DF9CF8F
:1003B00080919000877FF5CF8091A0008F77809308
:1003C000A000C3CF8091A0008F7DF9CF8091A000C5
:1003D000877FF5CF809120018F7780932001B5CF63
:1003E000809120018F7DF9CF80912001877FF5CF0B
:1003F00080E090E00895AF92BF92CF92DF92EF92AB
:10040000FF920F931F93CF93DF936C017B018B01BE
:10041000040F151FEB015E01AE18BF08C017D1070E
:1004200059F06991D601ED91FC910190F081E02D98
:10043000C6011995892B79F7C501DF91CF911F91DD
:100440000F91FF90EF90DF90CF90BF90AF90089505
:10045000FC01538D448D252F30E0842F90E0821BCA
:10046000930B541710F0CF96089501970895FC014F
:10047000918D828D981761F0A28DAE0FBF2FB11DA7
:100480005D968C91928D9F5F9F73928F90E00895FF
:100490008FEF9FEF0895FC01918D828D981731F0B9
:1004A000828DE80FF11D858D90E008958FEF9FEF0D
:1004B0000895FC01918D228D892F90E0805C9F4FE3
:1004C000821B91098F739927089581E292E00E941F
:1004D000590221E0892B09F420E0822F08958EEB48
:1004E00092E00E94590221E0892B09F420E0822F3A
:1004F0000895FC01A48DA80FB92FB11DA35ABF4FB9
:100500002C91848D90E001968F739927848FA68912
:10051000B7892C93A089B1898C91837080648C9366
:10052000938D848D981306C00288F389E02D808115
:100530008F7D80830895EF92FF920F931F93CF9347
:10054000DF93EC0181E0888F9B8D8C8D98131AC00E
:10055000E889F989808185FF15C09FB7F894EE89F5
:10056000FF896083E889F989808183708064808352
:100570009FBF81E090E0DF91CF911F910F91FF909D
:10058000EF900895F62E0B8D10E00F5F1F4F0F7345
:100590001127E02E8C8D8E110CC00FB607FCFACF00
:1005A000E889F989808185FFF5CFCE010E94790223
:1005B000F1CFEB8DEC0FFD2FF11DE35AFF4FF082D1
:1005C0009FB7F8940B8FEA89FB8980818062CFCF37
:1005D000CF93DF93EC01888D8823B9F0AA89BB897A
:1005E000E889F9898C9185FD03C0808186FD0DC065
:1005F0000FB607FCF7CF8C9185FFF2CF808185FF86
:10060000EDCFCE010E947902E9CFDF91CF9108951D
:1006100080E090E0892B29F00E946F0281110E94F6
:10062000000080E090E0892B49F080E090E0892B89
:1006300029F00E94000081110E94000080E090E0FB
:10064000892B49F080E090E0892B29F00E9400007E
:1006500081110E94000080E090E0892B29F00E9427
:10066000650281110C94000008953FB7F8948091C1
:10067000170290911802A0911902B0911A0226B5A2
:10068000A89B05C02F3F19F00196A11DB11D3FBFCA
:10069000BA2FA92F982F8827BC01CD01620F711D99
:1006A000811D911D42E0660F771F881F991F4A9593
:1006B000D1F708958F929F92AF92BF92CF92DF921F
:1006C000EF92FF924B015C010E9435036B017C01AC
:1006D0000E9435036C197D098E099F09683E73409D
:1006E00081059105A8F321E0821A9108A108B108BB
:1006F00088EEC80E83E0D81EE11CF11C8114910421
:10070000A104B10429F7FF90EF90DF90CF90BF9044
:10071000AF909F908F9008958F929F92AF92BF92CB
:100720000F931F93CF93DF93CDB7DEB7A1970FB68B
:10073000F894DEBF0FBECDBF19A2423008F44AE0E4
:100740008E010F5D1F4F842E912CB12CA12CA50181
:1007500094010E949106E62FB901CA01EA3044F5DE
:10076000E05DD801EE938D01232B242B252B79F707
:1007700090E080E0109769F0FD0101900020E9F71A
:100780003197AF014A1B5B0BBD018EEB92E00E94DB
:10079000FB01A1960FB6F894DEBF0FBECDBFDF916F
:1007A000CF911F910F91BF90AF909F908F90089520
:1007B000E95CD7CFCF92DF92EF92FF92CF93DF9396
:1007C0006B017C016DE28EEB92E00E949B02EC01DA
:1007D00066277727CB016C197D098E099F094AE0AE
:1007E0000E948C038C0F9D1FDF91CF91FF90EF90A3
:1007F000DF90CF90089542E050E062E172E08EEB2E
:1008000092E00C94FB011F920F920FB60F921124ED
:100810000BB60F922F933F934F935F936F937F93FA
:100820008F939F93AF93BF93EF93FF9381E292E0F7
:100830000E947902FF91EF91BF91AF919F918F91AB
:100840007F916F915F914F913F912F910F900BBED0
:100850000F900FBE0F901F9018951F920F920FB61A
:100860000F9211240BB60F922F938F939F93EF93B8
:10087000FF93E0913102F09132028081E0913702E2
:10088000F091380282FD1DC0908180913A028F5F05
:100890008F7320913B02821741F0E0913A02F0E021
:1008A000EF5DFD4F958F80933A02FF91EF919F91FD
:1008B0008F912F910F900BBE0F900FBE0F901F9036
:1008C00018958081F2CF1F920F920FB60F921124CC
:1008D0000BB60F922F933F934F935F936F937F933A
:1008E0008F939F93AF93BF93EF93FF938EEB92E021
:1008F0000E947902FF91EF91BF91AF919F918F91EB
:100900007F916F915F914F913F912F910F900BBE0F
:100910000F900FBE0F901F9018951F920F920FB659
:100920000F9211240BB60F922F938F939F93EF93F7
:10093000FF93E091CE02F091CF028081E091D4024A
:10094000F091D50282FD1DC090818091D7028F5F0A
:100950008F732091D802821741F0E091D702F0E026
:10096000E254FD4F958F8093D702FF91EF919F91B5
:100970008F912F910F900BBE0F900FBE0F901F9075
:1009800018958081F2CF1F920F920FB60F9211240B
:100990002F933F938F939F93AF93BF9380911B02AD
:1009A00090911C02A0911D02B0911E02309116027E
:1009B00023E0230F2D3758F50196A11DB11D20937B
:1009C000160280931B0290931C02A0931D02B09309
:1009D0001E028091170290911802A0911902B09105
:1009E0001A020196A11DB11D80931702909318025F
:1009F000A0931902B0931A02BF91AF919F918F916A
:100A00003F912F910F900FBE0F901F90189526E8E1
:100A1000230F0296A11DB11DD2CFE1E2F2E01382B5
:100A2000128248EE53E060E070E0448355836683B1
:100A3000778384E092E09183808325E331E03587FA
:100A4000248724E331E03787268720E331E0318BA8
:100A5000208B21E331E0338B228B22E331E0358B95
:100A6000248B26E331E0378B268B118E128E138E6A
:100A7000148EEEEBF2E01382128244835583668378
:100A800077839183808385EC90E09587848784ECDD
:100A900090E09787868780EC90E0918B808B81EC4B
:100AA00090E0938B828B82EC90E0958B848B86EC2C
:100AB00090E0978B868B118E128E138E148E089574
:100AC000CF93DF9300D000D0CDB7DEB7789484B554
:100AD000826084BD84B5816084BD85B5826085BD3A
:100AE00085B5816085BD80916E00816080936E00C8
:100AF00010928100809181008260809381008091BA
:100B0000810081608093810080918000816080936A
:100B100080008091B10084608093B1008091B0002A
:100B200081608093B00080919100826080939100F9
:100B3000809191008160809391008091900081600C
:100B4000809390008091A10082608093A1008091A9
:100B5000A10081608093A1008091A00081608093BA
:100B6000A000809121018260809321018091210168
:100B70008160809321018091200181608093200118
:100B800080917A00846080937A0080917A008260FC
:100B900080937A0080917A00816080937A008091BE
:100BA0007A00806880937A001092C1008EEB92E008
:100BB0000E944E0181E292E00E944E01CE01019618
:100BC0006C0110E000E0F82EED2C2FB7F894809126
:100BD0001B0290911C02A0911D02B0911E022FBF1A
:100BE0008093290290932A02A0932B02B0932C02A7
:100BF00081E292E00E94370297FF89C02FB7F894F4
:100C000080911B0290911C02A0911D02B0911E02C6
:100C10002FBF4091290250912A0260912B027091BE
:100C20002C02841B950BA60BB70B4091250250910B
:100C30002602609127027091280284179507A60763
:100C4000B707B0F2012B31F089819A81909320028D
:100C500080931F020E947501019721F580911F0268
:100C60009091200201969093200280931F020E948F
:100C700075010197B9F461E070E080E090E00E94B6
:100C80005A030E947501BC01990F880B990B97FFBD
:100C900005C00E94DA030E94FB03E9CF4AE00E94EC
:100CA0008C03F9CF80911F0290912002059724F0C8
:100CB0001092200210921F020E947501BC01990F30
:100CC000880B990B97FF1FC00E94DA030E94FB0359
:100CD00080911F02909120029A8389831B821C823B
:100CE0001D821E8246E050E06F2D7E2D81E292E053
:100CF0000E94FB016AE070E080E090E00E945A03ED
:100D00000E9408035BCF4AE00E948C03DFCFF6010C
:100D100081936F010F5F1F4F0630110509F055CF0A
:100D200093CFA1E21A2EAA1BBB1BFD010DC0AA1F67
:100D3000BB1FEE1FFF1FA217B307E407F50720F044
:100D4000A21BB30BE40BF50B661F771F881F991FBF
:100D50001A9469F760957095809590959B01AC0108
:100D6000BD01CF010895EE0FFF1F881F8BBF0790B5
:0A0D7000F691E02D1994F894FFCFDE
:100D7A00000000009B02FB012802E8025902370228
:060D8A004B020D0A0000FF
:00000001FF
